:020000040800F2
:10000000B80C0020B5010008FD2E00081D2E0008C8
:10001000F92E0008BD020008FD33000800000000B2
:10002000000000000000000000000000AD2F0008EC
:10003000C1020008000000006D2F00080530000814
:10004000CF010008CF010008CF010008CF01000850
:10005000CF010008CF010008CF010008CF01000840
:10006000CF010008CF010008CF010008CF01000830
:10007000CF010008CF010008CF010008CF01000820
:10008000CF010008CF010008CF010008CF01000810
:10009000CF010008CF010008CF010008CF01000800
:1000A000CF010008CF010008CF010008CF010008F0
:1000B000CF010008CF010008CF010008CF010008E0
:1000C000CF010008CF010008CF010008CF010008D0
:1000D000CF010008CF010008CF010008CF010008C0
:1000E000CF010008CF010008CF01000800F002F89E
:1000F00000F050F814A696E8000CB244B344DA4578
:1001000001D100F047F8BAE80F000FA696E83000DA
:10011000A5EB040504EB0607AAEB0704A7F101070A
:100120004FEA15154FEA3414A4F10104AC4201D38F
:1001300000F030F813F0010F18BFFB1A43F0010371
:1001400000F001F8DBE71847AC550000CC55000083
:10015000103A24BF78C878C1FAD8520724BF30C8F3
:1001600030C144BF04680C60704700007047000055
:100170000023002400250026103A28BF78C1FBD8B0
:10018000520728BF30C148BF0B6070471FB51FBD65
:1001900010B510BD00F058F81146FFF7F7FF04F056
:1001A000C7FF00F076F803B4FFF7F2FF03BC00F0DE
:1001B0007DF800000948804709480047FEE7FEE750
:1001C000FEE7FEE7FEE7FEE7FEE7FEE7FEE7FEE707
:1001D00004480549054A064B70470000793000087D
:1001E000ED000008B8060020B80C0020B808002078
:1001F000B80800204FF0000200B51346944696461A
:10020000203922BFA0E80C50A0E80C50B1F1200129
:10021000BFF4F7AF090728BFA0E80C5048BF0CC0D7
:100220005DF804EB890028BF40F8042B08BF704735
:1002300048BF20F8022B11F0804F18BF00F8012BA7
:100240007047704770477047754600F02BF8AE4610
:1002500005006946534620F00700854618B020B5D2
:10026000FFF7B6FFBDE820404FF000064FF0000753
:100270004FF000084FF0000BAC46ACE8C009ACE80A
:10028000C009ACE8C009ACE8C00921F007018D46FF
:10029000704710B50446AFF300802046BDE810401B
:1002A000FFF781BF00487047100000200149182067
:1002B000ABBEFEE72600020070470000FFE7FEE746
:1002C0007047000081B0EFF3108072B60090FFE736
:1002D000FEE7000081B000900098002818BF0120C0
:1002E00001B0704780B582B00190009100980199EB
:1002F000042201F055FB02B080BD000080B582B041
:100300000190009101986946042201F057FB02B068
:1003100080BD000081B00090009801B070470000DF
:1003200081B00090009801B07047000081B000904B
:10033000009801B07047000081B00090009801B0B3
:100340007047000083B00290019102980199401A11
:100350000090009803B0704780B584B0039002917C
:100360000192039800900298FFF7E6FF014600987B
:10037000019A00F007FD02980199084404B080BD7D
:1003800080B586B005900491039205980290049878
:10039000FFF7D2FF0190049803990844FFF7CCFFC0
:1003A000019902460298039B00F03CFD06B080BD17
:1003B00080B584B00390029101920398FFF7BCFFCF
:1003C0000299019A00F048FC03980199084404B08E
:1003D00080BD000083B002908DF807109DF80720C3
:1003E000029908785040087008200090FFE70098B4
:1003F000B8B1FFE7029800780006002807D5FFE7AC
:1004000002990A78072080EA4200087004E0029905
:10041000087840000870FFE7FFE700980138009077
:10042000E5E703B07047000081B00090009900201C
:10043000087001B07047000083B08DF807000020FD
:100440000090FFE70098032813DCFFE7009940F2D3
:10045000B000C2F20000405C9DF80710884203D152
:10046000FFE70098029008E0FFE700980130009055
:10047000E8E74FF0FF300290FFE7029803B07047C3
:1004800084B0039002910398019001980090029823
:1004900058B1FFE70298009908440138009002988B
:1004A0004142009808400090FFE700980199401AE7
:1004B00004B0704780B588B0069005910492059805
:1004C000039040F27C00C2F200000078FF2806D0C2
:1004D000FFE70499872008700398079044E0059986
:1004E00002A801F079F90590059901A801F074F9C5
:1004F00005900298F12806D3FFE70499842008703C
:100500000398079030E0019902980844884206D881
:10051000FFE70499862008700398079024E001986B
:100520000299084440F2B901C2F2000109788842F8
:1005300006D9FFE70499862008700398079013E016
:10054000019940F27D00C2F2000008440090039837
:1005500000999DF80820FFF72BFF03900499402095
:10056000087003980790FFE7079808B080BD000067
:1005700080B586B00590049103920020029040F26D
:100580007C00C2F200000078FFF756FF01900028BF
:1005900009D4FFE7019940F2A000C2F2000050F830
:1005A00021000290FFE70298D0B1FFE7029B40F2E2
:1005B0007C00C2F200000090007840F2B401C2F268
:1005C00000010A6840F27D01C2F2000198470099DB
:1005D00040F2B802C2F200021070FF200870FFE77C
:1005E00003990020087040F2B800C2F200000078C1
:1005F000049908700498013006B080BD80B58CB0B5
:100600000A90099108920793099806900898012882
:1006100006D8FFE707998C20087006980B9088E0B1
:10062000099800788DF8150009980130099009980B
:1006300000788DF816000998013009900998007823
:100640008DF817000998013009909DF81500C00732
:1006500078B1FFE79DF8160003F002FA04900498C1
:1006600030B9FFE707998C20087006980B9060E07E
:1006700015E09DF81600012806DBFFE70799942096
:10068000087006980B9054E09DF8160040F2446202
:10069000C2F200026C2100FB01200490FFE79DF8EC
:1006A000170001460391812804D0FFE703988228B0
:1006B00013D013E00498006870B1FFE70698029029
:1006C00004980068019004F057FC019902460298D2
:1006D000FFF76EFE0690FFE725E0FFE700208DF8AC
:1006E00015000498008D38B1FFE79DF8150040F023
:1006F00001008DF81500FFE7049890F8280006998E
:1007000008700698013006900498007906990870E0
:100710000698013006909DF8150006990870069815
:1007200001300690FFE707994020087006980B906B
:10073000FFE70B980CB080BD80B59AB01890179168
:10074000169240208DF8570017981490179800784B
:100750008DF84B001798013017909DF84B0003F06F
:10076000CFFA139030B9FFE71699942008701498C7
:10077000199009E1179800788DF84A001798013010
:1007800017909DF84A0001460991812809D0FFE79A
:100790000998822823D0FFE709988338022841D39B
:1007A000E6E09DF84B0003F091FA119020B9FFE7C5
:1007B00085208DF8570011E01198C06804F0DCFB2B
:1007C0001090149808901198C068FFF7AFFD01468B
:1007D0000898109AFFF7ECFD1490FFE7CCE09DF825
:1007E0004B0003F073FA0F9020B9FFE785208DF8D6
:1007F000570016E014980F99896800F0F9FF1490DB
:1008000014980F99496801F0BFF81490149840218A
:1008100000F0EEFF14901498282100F0E9FF1490E6
:10082000FFE7A9E0139802F03DFE8DF83B00139816
:10083000C06A02F009FE8DF83B009DF83B00149958
:1008400008701498013014909DF84A00832840F0F5
:100850008E80FFE79DF83B0000BBFFE71499002066
:100860000790087014990131149114990691FFF7BB
:100870005DFD01460698FFF741FD07991490149815
:1008800000F0B6FF07991490149800F0B1FF079993
:100890001490149800F0ACFF149067E0139841682E
:1008A000C069884207D3FFE713984168C069FFF722
:1008B00049FD059002E000200590FFE705980D90A6
:1008C0001398406A38B1FFE70D981399496AB0FB55
:1008D000F1F0049002E000200490FFE704980C90EF
:1008E0001398C06AC008C00718B1FFE70020039042
:1008F00002E00C980390FFE703980B901398C06AEE
:10090000C008C00718B1FFE70C98029003E01398E5
:10091000C0680290FFE702980A901398806AFF2847
:1009200004D8FFE71398806A019002E0FF2001904D
:10093000FFE70198149908701498013014901498E6
:1009400013994968FFF7DAFC149014981399496ACF
:1009500000F04EFF149014980A9900F049FF14908B
:1009600014980B9900F044FF1490FFE7FFE703E0B1
:1009700095208DF85700FFE7FFE79DF8570016997F
:10098000087014981990FFE719981AB080BD0000FC
:1009900080B582B00190009100980199042200F086
:1009A00033FF02B080BD000080B582B0012000900E
:1009B00040F2F850C2F200000021042203F04CFB88
:1009C000FFE745F20C60C0F60000006818B9FFE7C9
:1009D0000020019042E0FFE7FFE745F20C60C0F61F
:1009E0000000406818B9FFE70020019036E0FFE7FB
:1009F000FFE745F20C60C0F60000806818B9FFE719
:100A0000002001902AE0FFE700F096F818B9FFE710
:100A100000200090FFE700F069F818B9FFE7002018
:100A20000090FFE700F01EF818B9FFE700200090E3
:100A3000FFE700F041F818B9FFE700200090FFE75A
:100A400045F20C60C0F600000068804718B9FFE767
:100A500000200090FFE700980190FFE7019802B0A6
:100A600080BD000081B000200090FFE700980328BF
:100A700014DCFFE7009A40F2B001C2F20001FF204F
:100A80008854009A40F2A001C2F20001002041F80F
:100A90002200FFE7009801300090E7E740F27C0178
:100AA000C2F20001FF20087040F2B801C2F200015A
:100AB0000870012001B0704781B000200090FFE76E
:100AC000009800280FDCFFE7009840F24462C2F271
:100AD00000026C2100FB012100200885FFE700983F
:100AE00001300090ECE7012001B0704780B586B07E
:100AF0000120059040F2BC50C2F20000002100919C
:100B0000102203F0A9FA40F2B410C2F20000FFF77D
:100B10000DFC0146009801914FF480610391029011
:100B200045F2DA61C0F60001049101A900F088FCE9
:100B30000590059806B080BD80B540F2CC50C2F259
:100B4000000000212C2203F087FA012080BD000064
:100B500080B588B00790069105920493002100911A
:100B60000698059A03F078FA069802900120019001
:100B7000FFE70798411C079100788DF80F009DF85A
:100B80000F0000F07F008DF80E00059870B3FFE7AE
:100B90009DF80E00009900FA01F2029908781043BE
:100BA0000870009807300090009808281DD3FFE7D0
:100BB000009808380090019902980844029005981E
:100BC00001380590059878B1FFE7009860B1FFE71C
:100BD0009DF80E000099C1F1070120FA01F2029977
:100BE000087810430870FFE7FFE7FFE7FFE79DF88D
:100BF0000F0000060028BCD4FFE7049848B3FFE7C5
:100C00009DF80F004006002823D5FFE7059880B126
:100C1000FFE70099FF2000FA01F2029908781043DB
:100C200008700199029808440290059801380590CF
:100C3000FFE7FFE7059858B1FFE70299FF2008702A
:100C40000199029808440290059801380590F1E74F
:100C5000FFE7079808B080BD80B586B00590049185
:100C600003920598FFF75CFB02909DF81000C00707
:100C7000B8B1FFE70398A0B1FFE70498FFF750FB76
:100C800001900198411C0191007802994A1C02923E
:100C900008700398013803900198FFF74DFB04900A
:100CA000FFE79DF810008007D0B1FFE70398022806
:100CB00016D3FFE70498FFF733FB009002980099E2
:100CC00002F03CFE03980238039002980230029032
:100CD0000098023000900098FFF72EFB0490FFE789
:100CE0000298FFF729FB0499039A03F05FF906B015
:100CF00080BD000080B584B0039002910398FFF797
:100D00000FFB01900298FFF70BFB009001980099F0
:100D100002F014FE04B080BD80B584B0039002914F
:100D20000398FFF7FDFA01900298FFF7F9FA009097
:100D30000198009902F01EFE04B080BD80B584B019
:100D4000039002910398FFF7EBFA01900298FFF7E6
:100D5000E7FA00900198009902F036FE04B080BDD9
:100D600080B584B0039002910398FFF7D9FA0190FF
:100D70000298FFF7D5FA0090009800780199087062
:100D800004B080BD80B588B00790069105920698A2
:100D9000FFF7C6FA04909DF81C00C007B8B1FFE742
:100DA0000598A0B1FFE70798FFF7BAFA03900498F7
:100DB000411C0491007803994A1C0392087005981D
:100DC000013805900398FFF7B7FA0790FFE79DF801
:100DD0001C008007D0B1FFE70598022816D3FFE773
:100DE0000798FFF79DFA02900298049902F020FDFF
:100DF0000598023805900498023004900298023059
:100E000002900298FFF798FA0790FFE70798019081
:100E10000498FFF791FA01460198059A02F0F6FF4F
:100E200008B080BD80B58CB00B900A9109920893F0
:100E30000A98FFF775FA07900998FFF771FA06907C
:100E40009DF82C00C00778B3FFE7089860B3FFE770
:100E50000B98FFF765FA05900698411C06910078FB
:100E60008DF813000798411C079100789DF8131026
:100E700008408DF81200059800789DF8131020EABC
:100E800001019DF8120008438DF812009DF8120030
:100E900005994A1C05920870089801380890059831
:100EA000FFF74AFA0B90FFE79DF82C008007F0B19E
:100EB000FFE7089802281AD3FFE70B98FFF730FAEC
:100EC000039003980799069A02F0F8FC08980238F4
:100ED0000890079802300790069802300690039811
:100EE000023003900398FFF727FA0B90FFE70B9867
:100EF00002900798FFF720FA01900698FFF71CFA76
:100F0000019902460298089B02F0D6FF0CB080BD02
:100F100080B58CB00A9009910892079309980690C1
:100F2000089828B1FFE70898B0F5807F06D3FFE75F
:100F300007998C20087006980B90D6E009980078E5
:100F40008DF816000998013009909DF8160000F000
:100F50007F0002F085FD0490049830B9FFE70799FF
:100F60008C20087006980B90BFE09DF816000006D4
:100F7000002812D5FFE7049890F83000C00718B990
:100F8000FFE70020089007E0049991F8300000F096
:100F9000FE0081F83000FFE711E0049890F830007F
:100FA000C00718B1FFE70020089007E0049991F806
:100FB000300040F0010081F83000FFE7FFE70898BB
:100FC00000283FD0FFE7099800788DF817000998AE
:100FD000013009909DF8170038B1FFE704981830E8
:100FE0009DF8171003F04EF8FFE70898032823D365
:100FF000FFE70498083003F08FF8ADF80E0008986A
:1010000002388DF80D00BDF80E009DF80D108842D5
:1010100005DAFFE79DF80E008DF80D00FFE709984F
:1010200004999DF80D2003F0C5F809909DF80D0076
:10103000049981F8340004E00499002081F8340018
:10104000FFE7FFE70498C06A90B1FFE7049991F8C1
:10105000300040F0020081F830000498C16A8847EF
:10106000049991F8300000F0FD0081F83000FFE7AE
:101070000498183003F076F8ADF80A00ED200190DE
:101080000199BDF80A00884204D2FFE7BDF80A00C2
:101090000190FFE70198FD2803D3FFE7FC200190B2
:1010A000FFE79DF816000699087006980130069033
:1010B000049890F834008DF817009DF817000699F1
:1010C0000870069801300690019840B1FFE7069835
:1010D00004999DF8042003F0D3F80690FFE70799E0
:1010E0004020087006980B90FFE70B980CB080BD6D
:1010F00080B545F20C60C0F600004068804780BDB6
:1011000080B582B00020019040F27800C2F2000069
:101110000068C007002844D0FFE7FFE745F21860E9
:10112000C0F600008069804798B1FFE70DF1030029
:1011300003F03EFF0190019848B9FFE745F21860BF
:10114000C0F60000416A9DF80300884700E000E017
:10115000E4E7019878B1FFE745F21860C0F60000B7
:10116000C06A804740F27801C2F20001086840F08E
:1011700002000860FFE740F27800C2F20000006859
:101180004008C00760B1FFE745F21860C0F60000F4
:10119000006A804718B9FFE702F016FEFFE7FFE795
:1011A00019E0FFE745F21860C0F60000C06980470B
:1011B00080B1FFE700208DF8020045F21860C0F60C
:1011C0000000806A80478DF802009DF8020003F05D
:1011D00059FAE7E7FFE702B080BD000080B58CB0A8
:1011E0000A9009918DF8232007930A980690FF2012
:1011F0008DF81700002004900798012102F058FC98
:101200000490FFE7049818B9FFE700200B90A8E0CE
:10121000FFE79DF82300203801460191122800F2D3
:101220007A800199DFE801F00A1119215C54656E9A
:1012300032777777777777293B444C000A980DF11E
:10124000170102F071FC069069E004980A990DF10B
:10125000170203F073F8069061E004980A990DF103
:10126000170203F093F8069059E004980A990DF1DB
:10127000170203F0E1FE069051E004980A99099ADA
:101280000DF11703FFF7BAF9069048E004980A99A0
:10129000099A0DF11703FFF73BFE06903FE0049813
:1012A0000A99099A0DF1170300F0BCFA069036E08E
:1012B00004980A990DF11702FFF75AF906902EE0EB
:1012C00004980A990DF11702FFF7F4F8069026E04A
:1012D00004980A990DF11702FFF72EFA06901EE006
:1012E00004980A99099A0DF1170300F039F906904C
:1012F00015E004980A99099A0DF1170300F0D4F942
:1013000006900CE004980A990DF11702F02300F002
:101310002BF8069003E081208DF81700FFE79DF879
:101320001700FF281AD0FFE706980A99401A039081
:10133000039802909DF8170000F0C000802803D1A8
:10134000FFE700200290FFE70A9802999DF8172016
:10135000049B00F0E5F801200B9002E000200B90C8
:10136000FFE70B980CB080BD80B588B00690059162
:101370000492039305980090059800788DF80A0070
:101380009DF80A00012806DBFFE704999420087005
:101390000598079051E09DF80A0040F2CC52C2F245
:1013A00000022C2100FB012001900198007830B947
:1013B000FFE7049988200870059807903DE0002019
:1013C0008DF80B00FFE79DF80B0001990978884222
:1013D0002DDAFFE7039801999DF80B20114491F84D
:1013E0002410884206D2FFE70499862008700098EE
:1013F000079022E001989DF80B10084490F8241003
:101400000398401A03900598019A9DF80B3002EB5F
:10141000830149681A4492F82420FEF7C9FF059019
:10142000FFE79DF80B0001308DF80B00CBE7049926
:101430000020087005980790FFE7079808B080BD66
:1014400080B586B0049003910498012803DBFFE780
:101450000020059061E0FFE7039818B9FFE700203E
:1014600005905AE0FFE70398006818B9FFE70020ED
:10147000059052E003988068BF2803D8FFE700205A
:1014800005904AE00398C06818B9FFE7002005906E
:1014900043E0049802F01AFC029018B9FFE700201C
:1014A00005903AE002980068FEF714FF18B1FFE7D4
:1014B0000020059031E00299DDF80CC0DCF8000056
:1014C000DCF80420DCF80830DCF80CC0C1F80CC0F3
:1014D0008B604A600860029908688A68002102F0FF
:1014E000BBFD029800680421FEF7CAFF0190029834
:1014F00080680199884203D2FFE7002005900CE044
:10150000019A0299086810440860019A0299886853
:10151000801A886001200590FFE7059806B080BD1D
:1015200080B584B0039002918DF807200093009855
:1015300030B9FFE740F2F850C2F200000090FFE738
:1015400045F20C60C0F60000D0F808C0039802997C
:101550009DF80720009B1B68E04704B080BD000099
:1015600080B58CB00A9009910892079300200690EC
:10157000099905918DF813008DF81200089830B97B
:10158000FFE707998620087005980B9088E0099876
:1015900000788DF8120009980130099008980138F8
:1015A00008909DF8120002F0ABFB069030B9FFE7FF
:1015B00007999420087005980B9071E0FFE708994F
:1015C00000200229039007D3FFE79DF81300B0FA2B
:1015D00080F040090390FFE70398C007002858D027
:1015E000FFE7099800788DF81100099801300990FB
:1015F000099800788DF81000099801300990089832
:10160000023808909DF810000899884206D9FFE733
:1016100007998620087005980B9041E09DF811000D
:10162000013801460291032829D80299DFE801F028
:1016300002111B2109989DF81010069A9DF812308E
:10164000EE460DF1130CCEF800C003F091FA0990AC
:1016500019E009989DF81010069A0DF1130303F094
:10166000CBFA09900FE0069803F0F0FB8DF8130019
:1016700009E0069801F0C4FE8DF8130003E0952000
:101680008DF81300FFE79DF810100898401A089095
:1016900095E79DF813000799087005980B90FFE7F0
:1016A0000B980CB080BD000080B58AB008900791FF
:1016B000069205930798039000208DF80B0006987A
:1016C00030B9FFE7059986200870039809907FE0FC
:1016D000079800788DF80A0007980130079006985F
:1016E000013806909DF80A00012806DBFFE70599FE
:1016F00094200870039809906AE09DF80A0040F26F
:10170000CC52C2F200022C2100FB01200490FFE722
:10171000069900200229019007D3FFE79DF80B00EE
:10172000B0FA80F040090190FFE70198C007002857
:1017300047D0FFE7079800788DF809000798013037
:101740000790079800788DF80800079801300790F7
:101750000698023806909DF808000699884206D936
:10176000FFE70599862008700398099030E09DF8FE
:10177000090001460091012804D0FFE700980228E3
:1017800007D00FE00798049903F0DAFA8DF80B0000
:101790000CE0079804999DF8082003F0F5FA8DF8FD
:1017A0000B0003E081208DF80B00FFE79DF8081087
:1017B0000698401A06909DF808100798084407906C
:1017C000A6E79DF80B000599087003980990FFE7BC
:1017D00009980AB080BD000080B582B001900091E8
:1017E00000980199042200F0DBF802B080BD0000EF
:1017F00080B582B00190009101986946042200F002
:10180000DDF802B080BD000080B584B00390029185
:10181000019203980299019A0123FFF799F904B004
:1018200080BD000080B58AB00890079106920593AC
:10183000079804900020039040F27C00C2F2000060
:101840000078FF2806D0FFE70599872008700498E4
:1018500009904AE0069830B9FFE70599862008709C
:101860000498099041E006980138039003982128D4
:1018700006D3FFE70599852008700498099034E0A5
:10188000079800788DF80B000798013007909DF8B5
:101890000B0040F27C01C2F200010870039840F294
:1018A000B401C2F200010860039868B1FFE740F29A
:1018B0007D00C2F200000190019807999DF80C206C
:1018C000FEF74AFD0790FFE740F2B801C2F20001BF
:1018D000FE20087040F2B901C2F200010020087039
:1018E0000599087004980990FFE709980AB080BD2F
:1018F00082B001900091FFE70098007850B1FFE7B7
:101900000098411C009100780199087001980130FD
:101910000190F1E7019900200870019801300190D1
:10192000019802B07047000085B0049003910292C4
:10193000FFE7049800788DF80700049801300490C0
:101940009DF90700002816D4FFE7029898B1FFE739
:10195000029801380290029820B1FFE79DF8070035
:10196000009002E000200090FFE7009803994A1CD5
:1019700003920870FFE7FFE79DF807000028D8D121
:10198000FFE7049805B0704780B582B001900091E0
:1019900001986946042200F011F802B080BD0000F1
:1019A00080B584B003900291019203980299019A44
:1019B0000023FFF7CDF804B080BD000088B0079089
:1019C0000691059200200190009006980599084420
:1019D00001380390FFE70098059988420CD2FFE791
:1019E0000398411E0391007820B9FFE70098013069
:1019F000009000E000E0EEE70698039001200290DE
:101A00000098059988426AD2FFE700990598401A24
:101A10000590079900200870FFE70598411E059181
:101A2000002858D0FFE7039800788DF8120002993B
:101A30000398084403909DF812000199884000F033
:101A40007F008DF813009DF8132007990878104344
:101A500008709DF812000199C1F10701C8408DF886
:101A60001200059820B9FFE79DF8120070B1FFE75A
:101A70000799481C0790087840F0800008709DF88E
:101A8000120000F07F0007990870FFE7019801300D
:101A90000190019808281DD3FFE79DF81200C009A6
:101AA0008DF81200059820B9FFE79DF8120070B17B
:101AB000FFE70799481C0790087840F080000870FD
:101AC0009DF8120000F07F0007990870FFE70120E1
:101AD0000190FFE7A1E707980130079005E007991B
:101AE000481C079000200870FFE7079808B070476F
:101AF00081B0009001B0704781B0009001B0704794
:101B0000FFE740F2FC50C2F200000068006800F0FD
:101B10004000402801D0FFE7F3E7704780B582B06E
:101B200040F2FC50C2F200000DF1070101224FF01B
:101B3000FF3301F03BF89DF8070002B080BD0000C4
:101B40000120704740F2FC50C2F2000000680068BB
:101B5000C0F340107047000040F2FC50C2F2000099
:101B600000680068C0B2C0097047000040F2FC5035
:101B7000C2F200000068006800F04001012080EA25
:101B80009110704780B582B08DF8070040F2FC508C
:101B9000C2F200000DF1070101224FF0FF3301F006
:101BA000A5F802B080BD000090B00F900E9100200B
:101BB0000D900990FFE70E9800680D99C840002825
:101BC00000F07F81FFE70D99012088400C900E986E
:101BD00000680C9908400B900B980C99884240F0D3
:101BE0006C81FFE70E9840680590002851D0FFE710
:101BF000059801283AD0FFE7059802283FD0FFE773
:101C0000059803285FD0FFE70598112832D0FFE739
:101C10000598122838D0FFE705980021C1F211017C
:101C2000884236D0FFE705980021C1F212018842B0
:101C30002FD0FFE705980021C1F22101884228D06A
:101C4000FFE705980021C1F22201884221D0FFE779
:101C500005980021C1F2310188421AD0FFE70598AA
:101C60000021C1F23201884213D02FE00E98C068E3
:101C700009902CE00E98C0680430099027E00E9877
:101C8000C0680830099022E00E98C0680C300990B6
:101C90001DE00E98806818B9FFE70420099011E054
:101CA0000E988068012806D1FFE7082009900C985B
:101CB0000F99086105E0082009900C980F99486178
:101CC000FFE7FFE703E00020099000E0FFE70B9843
:101CD000FF2803D8FFE70F98049003E00F98043023
:101CE0000490FFE7049808900B98FF2804D8FFE7BA
:101CF0000D988000039006E00D996FF01F0000EB37
:101D000081000390FFE70398079008980068079AFE
:101D10000F21914088430999914008430899086030
:101D20000E98C079C006002840F1C680FFE7FFE7A3
:101D300041F21800C4F20200016841F001010160A3
:101D4000006800F0010006900698FFE70D9820F06B
:101D500003000821C4F2010140580A900D9800F0D8
:101D6000030081000F2000FA01F10A9888430A90CD
:101D70000F9840F60001C4F20101884203D1FFE749
:101D80000020029026E00F9840F60041C4F20101C5
:101D9000884203D1FFE70120019018E00F9841F23B
:101DA0000001C4F20101884203D1FFE70220009044
:101DB0000AE00F9941F20042C4F20102042091426C
:101DC00008BF03200090FFE700980190FFE701980B
:101DD0000290FFE702980D9901F00301890000FAD3
:101DE00001F10A9808430A900A980D9921F003011D
:101DF0000822C4F2010288500E988079C00600289B
:101E000009D5FFE70B9A40F20841C4F201010868C6
:101E10001043086008E00B9A40F20841C4F2010147
:101E2000086890430860FFE70E98807980060028D4
:101E300009D5FFE70B9A40F20C41C4F20101086892
:101E40001043086008E00B9A40F20C41C4F2010113
:101E5000086890430860FFE70E98807980070028A3
:101E600009D5FFE70B9A40F20441C4F2010108686A
:101E70001043086008E00B9A40F20441C4F20101EB
:101E8000086890430860FFE70E988079C00748B162
:101E9000FFE70B9A40F20041C4F2010108681043C9
:101EA000086008E00B9A40F20041C4F201010868A2
:101EB00090430860FFE7FFE7FFE70D9801300D90C2
:101EC00079E610B07047000082B00190ADF80210C2
:101ED0008DF801209DF8010028B1FFE7BDF8020050
:101EE0000199086105E0BDF802000004019908614C
:101EF000FFE702B07047000040F2B060C2F200009D
:101F00000068704740F20400C2F20000027840F21C
:101F1000B061C2F200010868104408607047000018
:101F200080B542F20001C4F20201086840F01000DE
:101F30000860032000F08CF80F2000F005F800F096
:101F40003BF8002080BD000080B582B0009040F2D8
:101F50000000C2F20000006840F20401C2F2000179
:101F60000A784FF47A71B1FBF2F1B0FBF1F000F0B6
:101F700069FD20B1FFE701208DF8070018E0009807
:101F80000F280DD8FFE700994FF0FF30002200F036
:101F900045F8009840F20801C2F20001086003E031
:101FA00001208DF8070003E000208DF80700FFE70F
:101FB0009DF8070002B080BD83B0FFE741F2180032
:101FC000C4F20200016841F001010160006800F004
:101FD000010002900298FFE7FFE741F21C00C4F203
:101FE0000200016841F080510160006800F08050FB
:101FF00001900198FFE7FFE70421C4F2010108689E
:102000000090009820F0E0600090009840F0007090
:10201000009000980860FFE703B0704780B586B075
:102020008DF81700049103920020029003F038F815
:1020300002909DF91700019002980499039A00F00C
:102040005FFF0146019803F033F806B080BD000041
:1020500080B582B00190019803F04CF802B080BDC9
:1020600080B584B002900191029820B9FFE7012069
:102070008DF80F001BE1019842F20001C4F2020149
:10208000096801F00701884216D9FFE742F2000013
:10209000C4F20200016821F00701019A11430160B6
:1020A000006800F007000199884204D0FFE7012092
:1020B0008DF80F00FBE0FFE702980078800700280A
:1020C0002AD5FFE7029800784007002809D5FFE7E6
:1020D00041F20401C4F20201086840F4E0600860C3
:1020E000FFE7029800780007002809D5FFE741F2D2
:1020F0000401C4F20201086840F460500860FFE780
:1021000041F20401C4F20201086820F0F000029AD2
:10211000926810430860FFE702980078C007002823
:1021200060D0FFE70298406801280ED1FFE741F236
:102130000000C4F2020000688003002804D4FFE716
:1021400001208DF80F00B2E021E0029840680228DB
:102150000ED1FFE741F20000C4F2020000688001E6
:10216000002804D4FFE701208DF80F009FE00DE068
:1021700041F20000C4F2020000688007002804D485
:10218000FFE701208DF80F0091E0FFE7FFE741F244
:102190000401C4F20201086820F00300029A5268A8
:1021A00010430860FFF7A8FE0090FFE741F204002B
:1021B000C4F20200006800F00C0002994968B0EB1C
:1021C000810F0ED0FFE7FFF797FE0099401A41F20A
:1021D0008931884204D3FFE703208DF80F0066E0C1
:1021E000E4E7FFE7019842F20001C4F20201096846
:1021F00001F00701884216D2FFE742F20000C4F264
:102200000200016821F00701019A11430160006892
:1022100000F007000199884204D0FFE701208DF803
:102220000F0044E0FFE702980078400700280CD533
:10223000FFE741F20401C4F20201086820F4E06003
:10224000029AD26810430860FFE7029800780007FE
:1022500000280DD5FFE741F20401C4F2020108682D
:1022600020F46050029A126940EAC2000860FFE759
:1022700000F04CF841F20401C4F202010968C9B24D
:102280000A0945F2F451C0F60001895CC84040F2E9
:102290000001C2F20001086040F20800C2F2000032
:1022A0000068FFF751FE00208DF80F00FFE79DF852
:1022B0000F0004B080BD000040F20000C2F2000038
:1022C0000068704780B5FFF7F7FF41F20401C4F2E0
:1022D00002010968C1F3022245F20461C0F600015F
:1022E000895CC84080BD000080B5FFF7E5FF41F282
:1022F0000401C4F202010968C1F3C22245F204617B
:10230000C0F60001895CC84080BD000086B0002096
:102310000590049003900290019041F20400C4F2F1
:10232000020000680590059800F00C00014600913D
:1023300000283FD0FFE70098042804D0FFE700986A
:10234000082806D037E041F20020C0F27A00019060
:1023500037E00598C0F3834145F24C60C0F60000B9
:10236000405C02909DF81600C007C0B1FFE741F243
:102370000400C4F202000068C0F3404145F25C6012
:10238000C0F60000405C0490029841F20021C0F2C7
:102390007A0148430499B0FBF1F0039007E00298FA
:1023A00040F60011C0F23D0148430390FFE7039857
:1023B000019006E0FFE741F20020C0F27A000190B0
:1023C000FFE7019806B0704780B586B00490049886
:1023D00020B9FFE701208DF817002EE3049800785C
:1023E000C007002800F0AE80FFE741F20400C4F20D
:1023F0000200006800F00C00042813D0FFE741F24F
:102400000400C4F20200006800F00C0008281BD190
:10241000FFE741F20400C4F202000068C003002894
:1024200012D5FFE741F20000C4F202000068800309
:10243000002808D5FFE70498406820B9FFE701208D
:102440008DF81700F9E27CE0FFE704984068B0F5EA
:10245000803F09D1FFE741F20001C4F202010868A0
:1024600040F48030086032E00498406868B9FFE7C3
:1024700041F20001C4F20201086820F480300860D3
:10248000086820F48020086020E004984068B0F5D7
:10249000A02F0DD1FFE741F20001C4F2020108684C
:1024A00040F480200860086840F4803008600CE048
:1024B00041F20001C4F20201086820F48030086093
:1024C000086820F480200860FFE7FFE7FFE7FFE7E8
:1024D00004984068D0B1FFE7FFF70EFD0390FFE7D7
:1024E00041F20000C4F202000068800300280CD40E
:1024F000FFE7FFF701FD0399401A652804D3FFE7C2
:1025000003208DF8170098E2EAE719E0FFF7F4FCE2
:102510000390FFE741F20000C4F20200006880036C
:1025200000280CD5FFE7FFF7E7FC0399401A652860
:1025300004D3FFE703208DF817007EE2EAE7FFE708
:10254000FFE7FFE7049800788007002840F18D80BE
:10255000FFE741F20400C4F20200006810F00C0F23
:1025600013D0FFE741F20400C4F20200006800F05B
:102570000C00082829D1FFE741F20400C4F2020050
:102580000068C003002820D4FFE741F20000C4F235
:10259000020000688007002809D5FFE70498006959
:1025A000012804D0FFE701208DF8170045E241F231
:1025B0000001C4F20201086820F0F800049A526990
:1025C00040EAC2000860FFE74EE00498006958B393
:1025D000FFE70021C4F2422101200860FFF78CFCD4
:1025E0000390FFE741F20000C4F202000068800798
:1025F00000280CD4FFE7FFF77FFC0399401A03285B
:1026000004D3FFE703208DF8170016E2EAE741F252
:102610000001C4F20201086820F0F800049A52692F
:1026200040EAC20008601EE00021C4F242210020FE
:102630000860FFF761FC0390FFE741F20000C4F27D
:1026400002000068800700280CD5FFE7FFF754FC64
:102650000399401A032804D3FFE703208DF81700DD
:10266000EBE1EAE7FFE7FFE7FFE704980078000700
:10267000002848D5FFE70498806918B3FFE740F2C7
:102680008041C4F2422101200860FFF735FC03902D
:10269000FFE741F22400C4F202000068800700282E
:1026A0000CD4FFE7FFF728FC0399401A032804D352
:1026B000FFE703208DF81700BFE1EAE7012000F0F3
:1026C00057FC1FE040F28041C4F242210020086024
:1026D000FFF712FC0390FFE741F22400C4F202006E
:1026E0000068800700280CD5FFE7FFF705FC039979
:1026F000401A032804D3FFE703208DF817009CE15C
:10270000EAE7FFE7FFE7049800784007002840F178
:10271000D880FFE700208DF8070041F21C00C4F2CA
:1027200002000068C000002813D4FFE7FFE741F271
:102730001C00C4F20200016841F080510160006891
:1027400000F0805000900098FFE701208DF807000E
:10275000FFE747F20000C4F200000068C00500284F
:1027600022D4FFE747F20001C4F20001086840F4F8
:1027700080700860FFF7C0FB0390FFE747F200009E
:10278000C4F200000068C00500280CD4FFE7FFF782
:10279000B3FB0399401A652804D3FFE703208DF8A3
:1027A00017004AE1EAE7FFE7FFE70498C06801285D
:1027B00009D1FFE741F22001C4F20201086840F0AC
:1027C0000100086031E00498C06868B9FFE741F291
:1027D0002001C4F20201086820F0010008600868C6
:1027E00020F0040008601FE00498C06805280DD19F
:1027F000FFE741F22001C4F20201086840F0040042
:102800000860086840F0010008600CE041F2200117
:10281000C4F20201086820F001000860086820F096
:1028200004000860FFE7FFE7FFE7FFE70498C068E0
:10283000E0B1FFE7FFF760FB0390FFE741F2200004
:10284000C4F202000068800700280ED4FFE7FFF7FB
:1028500053FB0399401A41F28931884204D3FFE7C0
:1028600003208DF81700E8E0E8E71BE0FFF744FBE2
:102870000390FFE741F22000C4F2020000688007E5
:1028800000280ED5FFE7FFF737FB0399401A41F206
:102890008931884204D3FFE703208DF81700CCE08C
:1028A000E8E7FFE79DF80700012809D1FFE741F2BB
:1028B0001C01C4F20201086820F080500860FFE7A4
:1028C000FFE70498C069002800F0B380FFE741F2F9
:1028D0000400C4F20200006800F00C00082800F0B8
:1028E0008280FFE70498C06902285CD1FFE760217D
:1028F000C4F2422100200860FFF7FEFA0390FFE7D0
:1029000041F20000C4F202000068800100280CD5EA
:10291000FFE7FFF7F1FA0399401A032804D3FFE712
:1029200003208DF8170088E0EAE70498006AB0F504
:10293000803F0CD1FFE741F20401C4F202010868B4
:1029400020F40030049A926810430860FFE741F2D7
:102950000401C4F20201086820F47410049B1A6A8E
:102960005B6A1A43104308606021C4F242210120CF
:102970000860FFF7C1FA0390FFE741F20000C4F2DC
:1029800002000068800100280CD4FFE7FFF7B4FACA
:102990000399401A032804D3FFE703208DF817009A
:1029A0004BE0EAE71EE06021C4F24221002008600B
:1029B000FFF7A2FA0390FFE741F20000C4F2020021
:1029C0000068800100280CD5FFE7FFF795FA03990E
:1029D000401A032804D3FFE703208DF817002CE0EA
:1029E000EAE7FFE724E00498C069012804D1FFE783
:1029F00001208DF8170020E041F20400C4F202002B
:102A000000680290029800F480300499096A8842B4
:102A100008D1FFE7029800F470100499496A8842CF
:102A200004D0FFE701208DF8170006E0FFE7FFE77D
:102A3000FFE700208DF81700FFE79DF8170006B0AC
:102A400080BD000080B582B00190019800F0B0FA1E
:102A500002B080BD80B582B00090009820B9FFE739
:102A600001208DF8070040E00098806908B1FFE779
:102A700000E0FFE7009890F8410040B9FFE70099B7
:102A8000002081F84000009800F034F8FFE700993A
:102A9000242081F8410000980168C86820F40050A3
:102AA000C860009800F0DEFB00980168086920F417
:102AB0009040086100980168486920F02A00486148
:102AC00000980168C86840F40050C8600099002070
:102AD0004864009A202182F84110009A82F842103E
:102AE000009948638DF80700FFE79DF8070002B0E2
:102AF00080BD000080B58AB0099000200890079042
:102B0000069005900998006843F60001C4F201019F
:102B1000884248D1FFE7FFE741F21800C4F2020003
:102B2000016841F480410160006800F48040049035
:102B30000498FFE7FFE741F21800C4F202000168C1
:102B400041F008010160006800F00800039003985C
:102B5000FFE740200590022006900320089040F6F1
:102B60000040C4F20100009005A90191FFF71CF894
:102B70000098019980220592002206920792FFF7A1
:102B800013F8FFE70421C4F20101086802900298DB
:102B900040F0E0600290029840F004000290029839
:102BA0000860FFE7FFE70AB080BD000080B58AB08B
:102BB00008900791ADF81A2005930020029008981C
:102BC00090F84200202840F08880FFE7079820B165
:102BD000FFE7BDF81A0020B9FFE701208DF82700B4
:102BE0007FE0089900204864089A222182F8421068
:102BF00008990863FFF780F90290BDF81A00089958
:102C00008885BDF81A000899C88508988068B0F5CD
:102C1000805F09D1FFE70898006928B9FFE7002025
:102C200004900798039004E0079804900020039014
:102C3000FFE7FFE70898C08D002846D0FFE7089817
:102C4000029B05996A4611602021002200F068FB72
:102C500040B1FFE70899202081F8420003208DF859
:102C600027003EE0049858B9FFE7089800684068DC
:102C70006FF35F20039908800398023003901FE0F0
:102C800008988068B0F5805F08D0FFE708988068F2
:102C900050B9FFE70898006930B9FFE70898006865
:102CA00040680499087007E008980068406800F0E0
:102CB0007F0004990870FFE7049801300490FFE753
:102CC0000899C88D0138C885B4E70899202081F893
:102CD000420000208DF8270003E002208DF8270035
:102CE000FFE79DF827000AB080BD000080B58AB0DC
:102CF00008900791ADF81A200593002002900898DB
:102D000090F84100202840F08180FFE7079820B12B
:102D1000FFE7BDF81A0020B9FFE701208DF8270072
:102D200078E00899002048640899212081F8410042
:102D3000FFF7E2F80290BDF81A0008998884BDF800
:102D40001A000899C88408988068B0F5805F09D196
:102D5000FFE70898006928B9FFE70020049007986A
:102D6000039004E00798049000200390FFE7FFE73A
:102D70000898C08C78B3FFE70898029B05996A46CB
:102D800011608021002200F0CBFA40B1FFE70899E2
:102D9000202081F8410003208DF827003AE00498B4
:102DA00058B9FFE7039800886FF35F200899096816
:102DB000486003980230039008E00498007808996E
:102DC00009684860049801300490FFE70899C88CAE
:102DD0000138C884CCE70898029B05996A461160BF
:102DE0004021002200F09CFA40B1FFE70899202022
:102DF00081F8410003208DF827000BE0089920207E
:102E000081F8410000208DF8270003E002208DF8B2
:102E10002700FFE79DF827000AB080BDFFE7FEE727
:102E200080B58AB000200990089007900690FFE7CF
:102E300041F21800C4F20200016841F02001016073
:102E4000006800F0200005900598FFE7FFE741F2D9
:102E50001800C4F20200016841F00401016000683A
:102E600000F0040004900498FFE7FFE741F2180027
:102E7000C4F20200016841F008010160006800F03E
:102E8000080003900398FFE740F60000C4F2010039
:102E900002904FF4007101910022FFF715F801999B
:102EA000029806910121079108910221099106A932
:102EB000FEF77AFE0AB080BD80B582B040F2FC50C9
:102EC000C2F20000019043F60001C4F2010101606A
:102ED0004FF4E131416000218160C16001610C2249
:102EE00042618161C161FFF7B5FD18B1FFE7FDF7F0
:102EF000E9F9FFE702B080BDFFE7FEE7FFE7FEE785
:102F000088B0079006910592079800F0070004909A
:102F10000498C0F10700052803D3FFE704200190BF
:102F200004E00498C0F107000190FFE701980390C6
:102F300004980430062803D8FFE70020009003E03F
:102F4000049803380090FFE70098029006980399D0
:102F5000012202FA01F101390840029B98400599CB
:102F60009A40013A1140084308B07047704700008A
:102F700082B00190019840F20001C2F2000109689C
:102F8000C90844F6D352C1F26202A1FB02218909A9
:102F900048430090FFE700BFFFE70098411E009103
:102FA0000028F8D1FFE702B070470000704700002A
:102FB00080B582B0009000980138B0F1807F03D3D3
:102FC000FFE70120019019E0009801384EF214014A
:102FD000CEF2000108604FF0FF300F2102F068F8D8
:102FE0004EF21801CEF20001002008604EF21002ED
:102FF000CEF20002072111600190FFE7019802B0B4
:1030000080BD000080B5FEF77DFF80BD80B590B02B
:1030100006A800902821FDF7EDF800980021059101
:1030200004910391029101910222069201230A93D5
:1030300010230B930D920E914FF460110F91FFF737
:10304000C3F918B1FFE7FDF73DF9FFE70F20019045
:1030500002210291002003904FF4806004904FF40D
:10306000A060059001A8FEF7FBFF18B1FFE7FDF790
:1030700029F9FFE710B080BD7047000080B500F06F
:10308000A3F880BD80B582B0FEF736FF01900198AD
:1030900040F27001C2F200010968884263D0FFE784
:1030A000019840F27001C2F20001086000F066F879
:1030B00001984CF6CD41CCF6CC4148434FEA700024
:1030C00049F69911C1F69911884203D8FFE700F03B
:1030D00053F8FFE7019845F62941CCF28F21484388
:1030E0004FEA70004BF65101C0F21E51884203D8DE
:1030F000FFE700F047F8FFE7019845F62941CCF2D9
:103100008F2148434FEAB00045F62841C0F28F2195
:10311000884203D8FFE700F02DF8FFE7019847F653
:10312000D501C2F2E96148434FEAB00041F26E2195
:10313000C0F28301884203D8FFE700F021F8FFE7DF
:10314000019847F6D501C2F2E96148434FEAF00021
:1031500048F63711C0F24101884203D8FFE700F07A
:1031600007F8FFE7FFE700F02BF802B080BD000092
:103170007047000070470000704700007047000073
:103180007047000080B540F27400C2F20000007881
:1031900050B9FFE740F60000C4F201004FF400719F
:1031A0000022FEF791FE09E040F60000C4F20100A3
:1031B0004FF400710122FEF787FEFFE780BD00009B
:1031C00080B5FDF795FF80BD80B5FDF7EDFB80BDB7
:1031D00084B00390FFE7FFE70398006850E8030F0F
:1031E00020F490700290FFE702990398026842E889
:1031F00003100028F0D1FFE7FFE7FFE7FFE70398A0
:10320000006850E8050F20F001000190FFE70199E8
:103210000398026842E805100028F0D1FFE7FFE7B5
:103220000398006B012814D1FFE7FFE7FFE703983D
:10323000006850E8030F20F010000090FFE70099AD
:103240000398026842E803100028F0D1FFE7FFE787
:10325000FFE70399202081F84200039900200863CA
:1032600004B0704780B584B003900398006800698B
:1032700020F44050039A1168D26810430861039902
:1032800088680A69496910430843029003980068F6
:10329000C06841F20C6188430299084303990968A8
:1032A000C86003980068406920F44070039A116870
:1032B0009269104348610398006843F60001C4F224
:1032C0000101884204D1FFE7FFF70EF8019003E007
:1032D000FEF7F8FF0190FFE7019819214843039A90
:1032E000116852689200B0FBF2FC48F21F52C5F21E
:1032F000EB12ACFB02304309642003FB10CC3220FC
:1033000000EB0C10A0FB0202F02000EA521000EBD0
:103310000310C2F343121044886004B080BD000063
:1033200080B586B0DDF820C0049003918DF80B20A5
:103330000193FFE704980068006803990840401A69
:10334000B0FA80F040099DF80B1088424DD1FFE79C
:1033500008980130002847D0FFE7FEF7CDFD01991E
:10336000401A0899884203D8FFE7089820B9FFE778
:1033700003208DF817003CE004980068C0684007FF
:10338000002830D5FFE7039880282CD0FFE703986A
:10339000402828D0FFE704980068006800F0080182
:1033A0000120B0EBD10F1DD1FFE7FFE70020009017
:1033B00004980068006800900498006840680090D5
:1033C0000098FFE70498FFF703FF0499082048647A
:1033D000FFE70499002081F84000FFE701208DF805
:1033E000170006E0FFE7FFE7A4E700208DF81700CD
:1033F000FFE79DF8170006B080BD0000FFE7FEE77D
:1034000082B000900098C06AC00720B9FFE788200A
:103410008DF8070014E00098C06A8008C00758B112
:10342000FFE70099C86A20F00400C8620099C86AE2
:1034300020F01000C862FFE700208DF80700FFE7CA
:103440009DF8070002B0704782B000900098C00756
:1034500020B9FFE700208DF807001EE000988008E3
:10346000C00720B1FFE702208DF8070015E00098A3
:103470004008C00720B9FFE701208DF807000CE0E5
:103480000098C008C00720B1FFE703208DF80700AF
:1034900003E004208DF80700FFE79DF8070002B065
:1034A0007047000080B588B0069000200590049019
:1034B000039002900698C06AC007002840F0B580CB
:1034C000FFE700208DF80700FFE79DF80700069949
:1034D00091F83C10884249DAFFE7069800689DF8A9
:1034E000071001EB810100EBC100007A0090009809
:1034F000012810D0FFE7009802280CD0FFE70098C1
:10350000042808D0FFE70098082804D0FFE78620A9
:103510008DF81F008DE0069800689DF8071001EBFC
:10352000810100EBC100407A4007002817D4FFE773
:1035300004990020B0EBD13F05D1FFE70598B0F525
:10354000004F04D3FFE786208DF81F0071E000993B
:10355000059808440590049801300490FFE7FFE7C0
:103560009DF8070001308DF80700AEE7059830B1EF
:10357000FFE7059806998968884204D9FFE7862005
:103580008DF81F0055E00698006B98B1FFE706988C
:10359000006B05994843039003980699896888420F
:1035A00003D9FFE70020029003E00698006B029029
:1035B000FFE7FFE7029858B9FFE70698806805998A
:1035C000B0FBF1F002900298059948430390FFE7A1
:1035D0000698406B0299884207D2FFE7029A069943
:1035E000486BC0431044486104E0029801380699D2
:1035F0004861FFE702980699C860069840680399F9
:103600000844FCF793FE06990862059806994862FB
:103610000498069988620699002081F82C00069982
:10362000C86A40F00100C862FFE700208DF81F0063
:10363000FFE79DF81F0008B080BD000082B08DF844
:1036400003008DF802109DF803009DF802108842D7
:1036500004DAFFE74FF0FF3001900CE09DF8030023
:103660009DF80210884203DDFFE70120019002E08F
:1036700000200190FFE7019802B0704780B582B04A
:1036800001900198006800F057FB00900198406895
:1036900000F052FB0099024600209142A8BF012091
:1036A00002B080BD80B582B001900198006800F042
:1036B00069FB00900198406800F064FB00990246A5
:1036C00000209142A8BF012002B080BD80B582B029
:1036D00001900198006800F039FB00900198406863
:1036E00000F034FB0099024600209142A8BF01205F
:1036F00002B080BD80B582B001900198006800F0F2
:1037000049FB00900198406800F044FB0099024694
:103710000020914228BF012002B080BD80B584B056
:1037200003900398006800F019FB01900291039840
:10373000406800F013FB019A034608460299D21A2A
:1037400071EB00004FF00000A8BF012004B080BD65
:1037500080B584B003900398006800F023FB0190CB
:1037600002910398406800F01DFB019A0346084649
:103770000299D21A71EB00004FF0000028BF01201F
:1037800004B080BD80B582B001900198006800F05F
:10379000EFFA00900198406800F0EAFA00990246BA
:1037A00000209142A8BF012002B080BD80B582B048
:1037B00001900198006800F0FFFA009001984068BD
:1037C00000F0FAFA0099024600209142A8BF0120B9
:1037D00002B080BD80B584B003900398006800F00B
:1037E00063FA019002910398406800F05DFA024686
:1037F00001980B46029901F0D0FD002818BF012066
:1038000004B080BD80B582B001900198006800F0DE
:1038100055FA00900198406800F050FA014600986F
:1038200001F0E5FD002818BF012002B080BD0000B6
:1038300084B0039002910DF1060000900298411CA3
:103840000291007800994A1C009208700298411C6D
:103850000291007800994A1C00920870BDF8060099
:103860000399088004B0704784B00390029101A8C6
:1038700000900298411C0291007800994A1C009225
:1038800008700298411C0291007800994A1C00922D
:1038900008700298411C0291007800994A1C00921D
:1038A00008700298411C0291007800994A1C00920D
:1038B000087001980399086004B0704780B586B01D
:1038C00005900491039204990DF10A00FFF7B0FFEF
:1038D000039902A8FFF7ACFF05980088ADF8060031
:1038E000BDF80600BDF808209043BDF80A1011404D
:1038F0000844ADF80600BDF806000599088006B03A
:1039000080BD000080B586B00590049103920499B3
:1039100002A8FFF7A9FF039901A8FFF7A5FF0598E3
:10392000006800900098019A904302991140084461
:10393000009000980599086006B080BD84B003909F
:1039400002910DF10600009002980088ADF8060083
:103950000098411C0091007803994A1C039208705A
:103960000098411C0091007803994A1C039208704A
:1039700004B0704784B00390029101A800900298AF
:10398000006801900098411C0091007803994A1C3E
:10399000039208700098411C0091007803994A1C1A
:1039A000039208700098411C0091007803994A1C0A
:1039B000039208700098411C0091007803994A1CFA
:1039C0000392087004B0704786B00590049102A875
:1039D0000190049908684968039102900198411C7C
:1039E0000191007805994A1C059208700198411CC4
:1039F0000191007805994A1C059208700198411CB4
:103A00000191007805994A1C059208700198411CA3
:103A10000191007805994A1C059208700198411C93
:103A20000191007805994A1C059208700198411C83
:103A30000191007805994A1C059208700198411C73
:103A40000191007805994A1C059208700198411C63
:103A50000191007805994A1C0592087006B07047DC
:103A600084B0ADF80A0000200090FFE7009800281D
:103A700018DCFFE7009840F24462C2F200026C21B9
:103A800000FB012001900198008DBDF80A108842CA
:103A900003D1FFE70198039007E0FFE700980130AA
:103AA0000090E3E700200390FFE7039804B070471D
:103AB00086B004900391002001900090FFE70098E9
:103AC000002820DCFFE7009940F2F850C2F2000025
:103AD00000EB81000290029800680499884203D1AB
:103AE000FFE7029805901BE0019838B9FFE70298BC
:103AF000006818B9FFE702980190FFE7FFE7009818
:103B000001300090DBE7019838B1FFE7039820B15E
:103B1000FFE7049801990860FFE701980590FFE727
:103B2000059806B07047000080B588B007900691F0
:103B300007980590FF208DF8130000200290079948
:103B400002A8FCF725FF0790029828BBFFE707981B
:103B50000DF10F010422FDF7E7FE07900020019010
:103B6000FFE701980A2816DCFFE7019945F260603B
:103B7000C0F6000050F821000DF10F0101F0A6F988
:103B800020B9FFE701980130029004E0FFE70198B7
:103B900001300190E5E7FFE70298002804DCFFE729
:103BA00089208DF8130077E040208DF813000598E8
:103BB000029A45F26061C0F6000101EB820151F802
:103BC000041CFDF795FE059002980138014600910E
:103BD0000A285CD80099DFE801F0060C151E273092
:103BE000373E454C53000598F021FDF701FE059046
:103BF00051E0059845F28F61C0F60001FDF778FEAF
:103C0000059048E0059845F2CE61C0F60001FDF749
:103C10006FFE05903FE0059845F2CE61C0F60001C9
:103C2000FDF766FE059036E0059845F2B561C0F6F1
:103C30000001FDF75DFE05902DE00599022008705A
:103C400005980130059026E005984FF00051FDF7EA
:103C5000CFFD05901FE005990120087005980130FF
:103C6000059018E00599012008700598013005902D
:103C700011E00599042008700598013005900AE0CC
:103C800005990120087005980130059003E089200E
:103C90008DF81300FFE7FFE79DF813000699087001
:103CA000059808B080BD000082B001900198009096
:103CB00000990868496802B07047000082B001901E
:103CC000019800900098006802B0704782B00090A0
:103CD0000098002804D4FFE70098012803DBFFE7E1
:103CE0000020019008E0009940F2BC50C2F20000B0
:103CF00000EB01100190FFE7019802B0704700004F
:103D000080B582B000900098002804D4FFE70098A6
:103D1000012803DBFFE7002001900AE00098010181
:103D200040F2BC50C2F200004058FCF7F3FA019098
:103D3000FFE7019802B080BD82B001900198009029
:103D40000098B0F9000002B07047000082B0019006
:103D5000019800900098006802B0704782B001900E
:103D60000198009000990868496802B07047000007
:103D700082B0019001980090009890F9000002B084
:103D80007047000082B00190019800900098008870
:103D900002B0704782B001900198009000980068CE
:103DA00002B0704782B001900198009000990868B5
:103DB000496802B07047000082B0019001980090FD
:103DC0000098007802B0704780B582B040F2BB0125
:103DD000C2F200010020087040F27802C2F2000234
:103DE000116821F001011160116821F002011160D8
:103DF00045F21861C0F600010191496888470198B1
:103E000081680120884702B080BD000080B588B07D
:103E10000790069105920698FCF782FA049007989D
:103E2000FCF77EFA0390FFE7059804280ED3FFE71E
:103E300003980499FFF718FD059804380590049835
:103E400004300490039804300390EDE70398FCF7E6
:103E500073FA07900798FCF763FA0290FFE705985A
:103E600002280ED3FFE702980499FFF7E1FC0598BA
:103E700002380590049802300490029802300290B3
:103E8000EDE70298FCF758FA07900798FCF748FA14
:103E90000190FFE7059860B1FFE70498411C049189
:103EA000007801994A1C0192087005980138059024
:103EB000F0E708B080BD000080B58AB00990089195
:103EC000079206930898FCF72BFA05900798FCF7E1
:103ED00027FA04900998FCF723FA0390FFE7069865
:103EE000042812D3FFE703980599049AFFF70AFD07
:103EF000069804380690059804300590049804301C
:103F00000490039804300390E9E70398FCF714FA4F
:103F100009900998FCF704FA0290FFE70698022836
:103F200012D3FFE702980599049AFFF7C7FC069899
:103F300002380690059802300590049802300490EB
:103F4000029802300290E9E70298FCF7F5F909902F
:103F50000998FCF7E5F90190FFE7069820B3FFE721
:103F60000498411C049100788DF803000598411CC9
:103F7000059100789DF8031008408DF80200019823
:103F800000789DF8031020EA01019DF80200084323
:103F90008DF802009DF8020001994A1C01920870F8
:103FA000069801380690D8E70AB080BD80B588B081
:103FB0000790069105920798FCF7B2F904900698CD
:103FC000FCF7AEF90390FFE7059804280ED3FFE74E
:103FD00004980399FFF7CEFC0598043805900498DF
:103FE00004300490039804300390EDE70398FCF745
:103FF000A3F906900698FCF793F90290FFE705985D
:1040000002280ED3FFE704980299FFF797FC059862
:104010000238059004980230049002980230029011
:10402000EDE70298FCF788F906900698FCF778F916
:104030000190FFE7059860B1FFE70198411C0191ED
:10404000007804994A1C049208700598013805907C
:10405000F0E708B080BD000084B003908DF80B102D
:10406000019203980090FFE70198411E019138B139
:10407000FFE79DF80B0000994A1C00920870F3E7D7
:1040800004B0704780B586B005908DF81310059880
:1040900000F068F8ADF810009DF81300BDF810109E
:1040A000884204DDFFE7BDF81000019003E09DF8B1
:1040B00013000190FFE70198ADF80E00BDF80E0067
:1040C00038B3FFE7059988880989401AADF80C00D4
:1040D000BDF80C00BDF80E10884208DCFFE7BDF803
:1040E0000E00BDF80C10401AADF80A0007E0059864
:1040F0000089BDF80E100844ADF80A00FFE70599E5
:10410000087B00F0FE000873BDF80A0005990881DD
:10411000FFE706B080BD000082B001900198007BEF
:10412000C00720B1FFE70020ADF8020016E00199BA
:10413000C8880989884207DAFFE701990889C98890
:10414000401AADF8020008E001998888CA88801AF0
:1041500009890844ADF80200FFE7FFE7BDF8020057
:1041600002B0704782B001900198007BC00728B16F
:10417000FFE701988088ADF8020016E00199C88831
:104180000989884207DBFFE70199C8880989401A35
:10419000ADF8020008E0019988880A89801AC98868
:1041A0000844ADF80200FFE7FFE7BDF8020002B0E7
:1041B0007047000080B586B0059004918DF80F20FF
:1041C0000498083002909DF80F00002855D0FFE7B2
:1041D00002998888C988401AADF80600BDF8060023
:1041E0009DF80F10884205DDFFE79DF80F00ADF840
:1041F0000600FFE702990868C988084405999DF8F8
:104200000620FCF7A9F80590BDF806200299C88899
:104210001044C8800299C8888988884204DBFFE777
:1042200002990020C880FFE79DF806109DF80F0056
:10423000401A8DF80F009DF80F0088B1FFE7029932
:104240000868C988084405999DF80F20FCF784F890
:1042500005909DF80F200299C8881044C880FFE798
:104260000299C8880989884206D1FFE70299087B2C
:1042700040F001000873FFE7FFE7059806B080BD36
:1042800080B586B0059004918DF80F200498183001
:10429000029002980089ADF804009DF80F000028F4
:1042A00048D0FFE702988088BDF80410401AADF8A6
:1042B0000600BDF806009DF80F10884205DDFFE7F7
:1042C0009DF80F00ADF80600FFE705980299096810
:1042D000BDF8042011449DF80620FCF769F805900C
:1042E000BDF80610BDF804000844ADF80400BDF8A0
:1042F000040002998988884204DBFFE70020ADF8BA
:104300000400FFE79DF806109DF80F00401A8DF895
:104310000F009DF80F0060B1FFE70598029909684A
:10432000BDF8042011449DF80F20FCF741F80590DA
:10433000FFE7FFE7059806B080BD000080B588B0B4
:1043400006900591049205980390059902A8FBF741
:10435000C9FF0590059901A8FDF73EFA059001985F
:10436000F12806D3FFE7049984200870039807908A
:1043700009E004990020087003980299019AFCF75B
:1043800017F80790FFE7079808B080BD80B588B0A0
:104390000690059104920598039005996846FCF7EC
:1043A000F7FA0590059901A8FDF716FA059000980F
:1043B00000F1005002900198F12806D3FFE704991C
:1043C000842008700398079009E004990020087081
:1043D00003980299019AFBF7EBFF0790FFE7079814
:1043E00008B080BD80B58AB00990089107920898FE
:1043F000FFF76CFC069009980021039180F82C10BF
:1044000009984022FFF728FE0999DDF81CC0DCF866
:104410000000DCF80420DCF80830DCF80CC0C1F83F
:104420003CC08B634A63086309984030FBF77EFF0A
:104430000590059804210191FCF722F801460598A2
:10444000084405900598FBF765FF0399099A1060E9
:1044500009980068079A127B02EB8202D200FFF7EC
:10446000FBFD099800680799097B01EB810100EBCE
:10447000C100FBF75BFF019905900598FCF700F878
:1044800001460598084405900598099948600598E3
:1044900002900998FBF74AFF029902460398891A8D
:1044A000049106998968049A891A099A91600AB058
:1044B00080BD00008BB00990089107920020059004
:1044C0000490FFE70898002807D4FFE708980999A7
:1044D00091F83C10884204D3FFE794208DF82B001C
:1044E000CCE0FFE7099890F82C0020B1FFE7872087
:1044F0008DF82B00C2E00798007A0138014602913E
:1045000007281ED80299DFE801F0040A1C101C1CC1
:104510001C1640F66150C0F60000049015E040F60D
:10452000F540C0F6000004900FE040F61950C0F6C8
:104530000000049009E040F63D50C0F600000490F1
:1045400003E086208DF82B0098E00798407A8007DA
:10455000002800F07980FFE70798407A00F0030018
:1045600003281CD1FFE70798007A0146019104282F
:1045700004D0FFE70198082806D00BE043F60500B9
:10458000C0F60000059009E043F2D570C0F60000C7
:10459000059003E086208DF82B006FE053E007982C
:1045A000407A00F003000238B0FA80F0400903902E
:1045B0000798007A01380146009107283ED80099F3
:1045C000DFE801F004123C203C3C3C2E039A43F20D
:1045D0008571C0F6000143F2AD70C0F60000002AFC
:1045E00018BF084605902DE0039A43F27D61C0F69E
:1045F000000143F2A560C0F60000002A18BF08467B
:1046000005901FE0039A43F2CD61C0F6000143F22A
:10461000F560C0F60000002A18BF0846059011E0BA
:10462000039A43F21D71C0F6000143F25170C0F6C7
:104630000000002A18BF0846059003E086208DF888
:104640002B001BE0FFE7FFE709980068089901EBE2
:10465000810100EBC10006900699079B18685A6813
:104660009B688B604A600860059806998861049889
:104670000699C86100208DF82B00FFE79DF82B00FC
:104680000BB0704780B588B08DF81B0040F2780001
:10469000C2F2000005909DF81B002B2816D1FFE701
:1046A00005980168012020EAD1020599086820F0E8
:1046B000080040EAC200086005980068C008C0070A
:1046C00018B1FFE700200790E0E0FFE705980068D9
:1046D000C008C00778B3FFE740F2B451C2F200014E
:1046E000019140F2BD00C2F20000086040F2BA0041
:1046F000C2F200000090FBF797FE00989DF81B1097
:10470000FBF768FE019B9DF81B0019684A1C1A60A4
:10471000087040F2BB01C2F2000100200870059A47
:10472000116841F010011160059A116821F008012B
:1047300011600790AAE0059800680009C00710B34F
:10474000FFE79DF81B00013040F2BB01C2F20001FF
:1047500008709DF81B1040F2BA00C2F20000FBF78F
:1047600039FE9DF81B0040F2B453C2F200031968F1
:104770004A1C1A6008700599086820F0100008604B
:104780000020079082E040F2BB00C2F200000078F7
:10479000002878D0FFE740F2BB00C2F200000178A9
:1047A000013901700078E8BBFFE740F2B450C2F273
:1047B0000000006820B9FFE7832000F06BF82EE0CE
:1047C00040F2BA00C2F2000000789DF81B10884247
:1047D00004D0FFE7822000F05DF81FE040F2BD004A
:1047E000C2F200000490049800788DF80B00049841
:1047F00001300490049800788DF80A000498013084
:10480000049004989DF80A109DF80B2045F2EB6384
:10481000C0F60003FCF7E2FC0390FFE7FFE701208E
:10482000079033E09DF81B1040F2BA00C2F200007E
:10483000FBF7D0FD40F2B450C2F20000006800B3B4
:10484000FFE740F2B450C2F20000006840F2BD0140
:10485000C2F20001F03188420BD2FFE79DF81B0045
:1048600040F2B453C2F2000319684A1C1A6008707F
:1048700006E040F2B451C2F2000100200860FFE7F8
:10488000FFE7FFE7FFE700200790FFE7079808B082
:1048900080BD000080B582B08DF807009DF807202C
:1048A00040F2BD00C2F2000002300023194600F0C1
:1048B000AFF802B080BD000080B584B040F278014E
:1048C000C2F200010020087040F2BC01C2F20001F7
:1048D0000870FFE745F21860C0F60000006818B9DC
:1048E000FFE7002003907DE0FFE7FFE745F2186057
:1048F000C0F60000406818B9FFE70020039071E09F
:10490000FFE7FFE745F21860C0F60000806818B9BD
:10491000FFE70020039065E0FFE7FFE745F218603E
:10492000C0F60000806918B9FFE70020039059E045
:10493000FFE7FFE745F21860C0F60000C06918B94C
:10494000FFE7002003904DE0FFE7FFE745F2186026
:10495000C0F60000006A18B9FFE70020039041E0AC
:10496000FFE7FFE745F21860C0F60000406A18B99B
:10497000FFE70020039035E0FFE7FFE745F218600E
:10498000C0F60000806A18B9FFE70020039029E014
:10499000FFE7FFE745F21860C0F60000C06A18B9EB
:1049A000FFE7002003901DE0FFE745F21860C0F626
:1049B00000000068804718B9FFE70020039011E06D
:1049C00045F21860C0F60000019081680120029055
:1049D00088470199029849688847FFF7F5F90298D6
:1049E0000390FFE7039804B080BD000080B545F256
:1049F0001860C0F60000006B38B1FFE745F21860A0
:104A0000C0F60000006B8047FFE7FCF779FB80BD34
:104A100080B586B0059004918DF80F20029304981C
:104A2000FC2809D8FFE7059840F2BD01C2F2000159
:104A30000231884206D0FFE784208DF80F00002065
:104A40000490FFE740F2B851C2F2000140F2BD000D
:104A5000C2F2000008600498033040F2BC01C2F2C8
:104A6000000108709DF80F00400600280AD5FFE7F6
:104A70009DF80F0040F2BD01C2F2000108700498D9
:104A8000487015E09DF80F0040F2BD01C2F2000130
:104A9000487040F2B851C2F2000108680130086065
:104AA00040F2BC01C2F20001087801380870FFE74B
:104AB00040F2BA00C2F20000FBF7B6FC40F2B85078
:104AC000C2F200000068059001208DF80700FFE7A2
:104AD0009DF8070040F2BC01C2F20001097888424B
:104AE00016DAFFE7059800788DF806000598013082
:104AF00005909DF8061040F2BA00C2F20000FBF7E4
:104B000069FCFFE79DF8070001308DF80700DFE73B
:104B100040F2BA00C2F200000078059908700598CA
:104B20000130059040F27801C2F20001086840F0BF
:104B300001000860086820F002000860086820F0A2
:104B40000400086045F21860C0F60000009081681B
:104B500000208847009841680120884700988069B4
:104B600080470098416A2B20884706B080BD00002E
:104B700080B58CB0DDF838C00A900991089207938F
:104B80000A98029003A8019000211022FFF764FA0E
:104B900001980A9909788DF818100A9901310A913B
:104BA0000A99FCF719FE014601980A9104300A9906
:104BB000FCF712FE014601980A9108300A99FCF7A9
:104BC0000BFE0A900A980299099A1144884206D06D
:104BD000FFE70E99862008700A980B9009E0089864
:104BE000079903AAFFF7FEFB0E9908700A980B902D
:104BF000FFE70B980CB080BD80B58EB00C900B9188
:104C00000A9209930C98059000218DF8131006A8BC
:104C100002900C22FFF720FA02980C9909788DF87F
:104C200013100C9901310C910C99FBF75BFB0C9064
:104C30000C9800788DF820000C9801300C900C989E
:104C400000788DF821000C9801300C909DF813002D
:104C50000A9991F83C10884206DBFFE709999420F5
:104C600008700C980D9067E09DF82000092806D385
:104C7000FFE70999862008700C980D905CE09DF87C
:104C800021000006002807D5FFE706A804300C998C
:104C9000FBF728FB0C9038E00A9800689DF8131089
:104CA00001EB810100EBC100103003909DF8210061
:104CB00000F0030001460191012818D0FFE7019898
:104CC00002280CD0FFE70198032811D1FFE70C98C8
:104CD00003999DF82020FCF763FE0C9010E00C98DF
:104CE00003999DF82020FCF78FFD0C9008E0FFE76A
:104CF0000C9803999DF82020FCF752FE0C90FFE7DA
:104D00000398FBF713FB0790FFE70C9805990B9AA4
:104D10001144884204D0FFE709998620087008E012
:104D20000A989DF8131006AAFFF7C4FB09990870AA
:104D3000FFE70C980D90FFE70D980EB080BD0000C6
:104D400080B586B004900391049800788DF80B002C
:104D50009DF80B00092804DBFFE786208DF817007B
:104D60000DE00398002101912C22FFF775F90198BD
:104D70009DF80B10039A11708DF81700FFE79DF84E
:104D8000170006B080BD000080B588B00690059180
:104D90008DF8132006980390069800788DF80B0084
:104DA000069801300690069901A8FBF79BFA069039
:104DB000069800788DF80300069801300690069852
:104DC00003999DF813201144884204D0FFE7862000
:104DD0008DF81F0035E09DF80B0005990978884291
:104DE00004DBFFE785208DF81F002AE09DF8030013
:104DF000012813D0FFE79DF8030002280ED0FFE73B
:104E00009DF80300042809D0FFE79DF80300082857
:104E100004D0FFE786208DF81F0012E00198059965
:104E20009DF80B2001EB820148609DF80300059975
:104E30009DF80B20114481F8240000208DF81F00FC
:104E4000FFE79DF81F0008B080BD000080B584B06A
:104E500002900298C06AC00768B9FFE70298FEF79F
:104E600021FB8DF8070028B1FFE79DF807008DF8BA
:104E70000F0027E0FFE70298C06A8008C00720B152
:104E8000FFE700208DF80F001CE002994868C86118
:104E9000029900200861029AD16A41F00401D162AE
:104EA000029AD16A21F00201D162029AD16A41F0DC
:104EB0000801D162029AD16A21F01001D1628DF805
:104EC0000F00FFE79DF80F0004B080BD80B588B0EB
:104ED0000690059100200490069802900598019094
:104EE00006980599884203D1FFE70020079040E02B
:104EF000FFE7069818B9FFE70120079039E0FFE7C0
:104F0000FFE7059820B9FFE74FF0FF30079030E04A
:104F1000FFE7FFE70298411C029100788DF80F002F
:104F20000198411C019100788DF80E009DF80F004A
:104F30009DF80E10FEF782FB0490049818B1FFE76D
:104F40000498079015E0FFE79DF80F1000200090EF
:104F500039B1FFE79DF80E00002818BF012000902E
:104F6000FFE70098C0070028D4D1FFE70020079092
:104F7000FFE7079808B080BD84B0039003980290C3
:104F800000200190FFE70298411C0291007860B177
:104F9000FFE701980130009000980199884203D9F9
:104FA000FFE700980190FFE7EDE7019804B0704734
:104FB00082B0009040F2BC00C2F200000078A8B3BA
:104FC000FFE740F2B850C2F2000000680078009994
:104FD0000870009800782B2817D1FFE740F278007E
:104FE000C2F200000268012121EA9202016821F068
:104FF000040141EA8201016000688008C00718B11D
:10500000FFE70020019014E0FFE740F2BC01C2F28C
:10501000000108780138087040F2B851C2F200016E
:105020000868013008600020019002E00120019032
:10503000FFE7019802B0704780B588B007900691ED
:10504000059206980490069800788DF80600069858
:1050500001300690069903A8FBF744F906900699DB
:1050600002A8FCF7B9FB06909DF80600C00730B116
:10507000FFE703980699029AFBF782F906E0039886
:105080000699029AFBF768F90690FFE700208DF871
:1050900007009DF8070005990870049808B080BDC6
:1050A0004EF60C50CEF200000068C0F302207047AC
:1050B00082B08DF8070000919DF9070000280AD4FE
:1050C000FFE7009800019DF907104EF20042CEF272
:1050D000000288540BE0009800019DF8071001F0D1
:1050E0000F014EF61452CEF200028854FFE702B0D0
:1050F0007047000083B00290029800F00700009013
:105100004EF60C51CEF200010868019001984FF65E
:10511000FF02104001900198009A40EA022000220C
:10512000C0F2FA52104301900198086003B0704732
:1051300080B582B000200190FCF7F2FEFDF766FF1B
:10514000FDF76EFEFDF7B8FEFDF798FFFFE7FDF7F0
:1051500099FFFCE7491058BFC1F140415B1058BFAF
:10516000C3F140438B42EFF30080704751EA030CD8
:1051700017D41CF5801F58BFBCF5801F00F10680B6
:10518000994218BF704708BF9042704707D711F582
:10519000801F58BF13F5801F19D499427047894268
:1051A00070471CF5801F08D5BCF5801FF7D58B42D2
:1051B00018BF704708BF824270474FF4001C1CEBB9
:1051C000410F38BF1CEB430F01D28B42704770B5C3
:1051D00000F080F8922449004FF000514FF08053C6
:1051E000FFF7B8BF51EA030C17D41CF5801F58BF56
:1051F000BCF5801F00F10680994218BF704708BFB8
:105200009042704707D711F5801F58BF13F5801FD4
:1052100019D499427047894270471CF5801F08D500
:10522000BCF5801FF7D58B4218BF704708BF82427C
:1052300070474FF4001C1CEB410F38BF1CEB430FB1
:1052400001D28B42704770B500F044F892244900B7
:105250004FF080514FF00053FFF77CBF51EA030C31
:1052600017D41CF5801F58BFBCF5801F00F10680C5
:10527000994218BF704708BF9042704707D711F591
:10528000801F58BF13F5801F19D499427047894277
:1052900070471CF5801F08D5BCF5801FF7D58B42E1
:1052A00018BF704708BF824270474FF4001C1CEBC8
:1052B000410F38BF1CEB430F01D28B42704770B5D2
:1052C00000F008F8922449004FF000514FF080534D
:1052D000FFF740BF0EF1020E2EF0030E5EF8046BD6
:1052E000364205D4012A43EB030515F5001F12D8F9
:1052F000012841EB010C1CF5001F0CD80ED14FEA20
:10530000D17C0CEB4C0C0CF1020C15F5001F08BF06
:105310004CEBD37C04E04FF0080C01E04FEAD37C67
:105320000CEB4C0526FA05F606F00706B6F1040C60
:1053300006D20EEB860CBDE870404CF0010C6047C5
:10534000DFE80CF0090B02024FF00041A1F500214B
:105350004FF0000070BD19461046012851EB0104C2
:1053600018BFD4F5001484BF002001F0004170BDC7
:1053700010B5FFF7FBFE0CBF0120002010BD10B5DB
:10538000FFF7F4FE14BF0120002010BD10B5FFF799
:1053900029FF8CBF0120002010BD10B5FFF722FFB0
:1053A0002CBF0120002010BD10B5FFF757FF94BFA0
:1053B0000120002010BD10B5FFF750FF34BF0120C1
:1053C000002010BD10B500F033F80CBF0120002004
:1053D00010BD10B500F02CF814BF0120002010BD46
:1053E00010B500F059F88CBF0120002010BD10B599
:1053F00000F052F82CBF0120002010BD10B500F0C5
:105400007FF894BF0120002010BD10B500F078F89F
:1054100034BF0120002010BD401058BFC0F14040F3
:10542000491058BFC1F140418142EFF300807047FD
:1054300050EA010C00F113801CF5000F58BFBCF5B9
:10544000000F01D48842704707D710F5000F58BFEE
:1054500011F5000F15D488427047894270471CF53A
:10546000000F04D5BCF5000FF7D5814270474FF00F
:10547000807C1CEB400F38BF1CEB410F01D28142F6
:10548000704710B500F070F8922449004FF00050BA
:105490004FF08051FFF7C0BF50EA010C00F11380BC
:1054A0001CF5000F58BFBCF5000F01D488427047AF
:1054B00007D710F5000F58BF11F5000F15D488421B
:1054C0007047894270471CF5000F04D5BCF5000FEA
:1054D000F7D5814270474FF0807C1CEB400F38BFFE
:1054E0001CEB410F01D28142704710B500F03CF82F
:1054F000922449004FF080504FF00051FFF78CBFCD
:1055000050EA010C00F113801CF5000F58BFBCF5E8
:10551000000F01D48842704707D710F5000F58BF1D
:1055200011F5000F15D488427047894270471CF569
:10553000000F04D5BCF5000FF7D5814270474FF03E
:10554000807C1CEB400F38BF1CEB410F01D2814225
:10555000704710B500F008F8922449004FF0005051
:105560004FF08051FFF758BF0EF1020E2EF0030EE0
:105570005EF8044B244204D44FEA4102B2F17F4F5B
:1055800011D84FEA4003B3F17F4F0CD80ED14FEA48
:10559000D07C0CEB4C0C0CF1020CB2F17F4F08BF2D
:1055A0004CEBD17C04E04FF0080C01E04FEAD17CD9
:1055B0000CEB4C0324FA03F404F00704B4F1040CDC
:1055C00006D20EEB840CBDE810404CF0010C604795
:1055D000DFE80CF0070802024FF00040A0F5800061
:1055E00010BD0846420018BFD2F1807288BF00F09B
:1055F000004010BD00000000000000000102030494
:10560000060708090000000001020304B948000869
:10561000ED490008114A0008411B0008F91A00086A
:10562000F11A000800000000000000000000000067
:10563000591B0008451B00086D1B0008851B00084E
:105640001D1B0008011B00080000000002030405E8
:10565000060708090A0B0C0D0E0F101001020000BE
:10566000AE560008AB560008A5560008A85600081C
:10567000A25600088C560008965600089C56000852
:105680009F560008B256000899560008463100336C
:105690002E302E313200424100504300524300531D
:1056A00043004244004E4D004453005653004D54B5
:1056B00055005056004275696C6420646174652021
:1056C0006E6F7420737065636966696564004E6F00
:1056D0007420646566696E65640044656661756C16
:1056E00074205265636F72646572007365726961DC
:1056F0006C00000018570008000000201000000097
:10570000500100082857000810000020A80C0000D5
:10571000700100080000000000127A000100000083
:08572000100000000000000071
:04000005080000ED02
:00000001FF
