:020000040800F2
:10000000B80C0020B50100080526000845250008A9
:10001000012600081103000819260008000000004E
:100020000000000000000000000000000D26000895
:10003000150300080000000009260008112600082A
:10004000CF010008CF010008CF010008CF01000850
:10005000CF010008CF010008CF010008CF01000840
:10006000CF010008CF010008CF010008CF01000830
:10007000CF010008CF010008CF010008CF01000820
:10008000CF010008CF010008CF010008CF01000810
:10009000CF010008CF010008CF010008CF01000800
:1000A000CF010008CF010008CF010008CF010008F0
:1000B000CF010008CF010008CF010008CF010008E0
:1000C000CF010008CF010008CF010008CF010008D0
:1000D000CF010008CF010008CF010008CF010008C0
:1000E000CF010008CF010008CF01000800F002F89E
:1000F00000F050F814A696E8000CB244B344DA4578
:1001000001D100F047F8BAE80F000FA696E83000DA
:10011000A5EB040504EB0607AAEB0704A7F101070A
:100120004FEA15154FEA3414A4F10104AC4201D38F
:1001300000F030F813F0010F18BFFB1A43F0010371
:1001400000F001F8DBE7184784300000A43000001D
:10015000103A24BF78C878C1FAD8520724BF30C8F3
:1001600030C144BF04680C60704700007047000055
:100170000023002400250026103A28BF78C1FBD8B0
:10018000520728BF30C148BF0B6070471FB51FBD65
:1001900010B510BD00F082F81146FFF7F7FF02F02E
:1001A00007FD00F0A0F803B4FFF7F2FF03BC00F076
:1001B000A7F800000948804709480047FEE7FEE726
:1001C000FEE7FEE7FEE7FEE7FEE7FEE7FEE7FEE707
:1001D00004480549054A064B7047000015260008EB
:1001E000ED000008B8060020B80C0020B808002078
:1001F000B808002002F0FF0343EA032242EA024269
:1002000000F002B84FF000020429C0F0128010F094
:10021000030C00F01B80CCF1040CBCF1020F18BFE2
:1002200000F8012BA8BF20F8022BA1EB0C0100F075
:100230000DB85FEAC17C24BF00F8012B00F8012B48
:1002400048BF00F8012B70474FF0000200B513467D
:1002500094469646203922BFA0E80C50A0E80C50E6
:10026000B1F12001BFF4F7AF090728BFA0E80C5097
:1002700048BF0CC05DF804EB890028BF40F8042B90
:1002800008BF704748BF20F8022B11F0804F18BFFD
:1002900000F8012B7047704770477047754600F0B3
:1002A0002BF8AE4605006946534620F00700854608
:1002B00018B020B5FFF78CFFBDE820404FF00006D6
:1002C0004FF000074FF000084FF0000BAC46ACE8D1
:1002D000C009ACE8C009ACE8C009ACE8C00921F02D
:1002E00007018D46704710B50446AFF300802046E5
:1002F000BDE81040FFF757BF0048704710000020CE
:1003000001491820ABBEFEE726000200704700003E
:10031000FEE7000070470000EFF3108072B600BFE8
:10032000FEE70000B0B58C4600234FF0040E0360DA
:1003300004E000BF4FF0000E00291FD51CF9011B7F
:10034000BEF1000FF6D001F07F04027804FA03F545
:100350002A43027083B15A1EBEF1010E00F1010062
:1003600018BF002A06D0C3F10803057824FA03F366
:100370002B4303701346DFE70723DDE76046B0BD7C
:1003800070B581B000910321EC4600BF1CF801203C
:100390002AB901394A1CF9D10021017035E0002247
:1003A0004B1C027031D00023002604E00136994234
:1003B00003F1010329D01CF80320057802FA06F4A2
:1003C00004F07F042C43C6F10705994222FA05FE8A
:1003D000047008BFBEF1000F06D00EF07F0244F09B
:1003E0008004047000F8012F072EDFD3994202D158
:1003F000BEF1800F07D302784FEADE1642F080028A
:10040000027000F8016F0126D1E7013001B070BD24
:10041000401A7047B0B514460D4600F0B7FA2819D7
:10042000B0BD000013460A4400F0DEBAB0B5144671
:10043000054600F059FA2819B0BD000080B50278D1
:100440004FF0070C51406FF0070201704FFA81FE28
:100450000B464900BEF1000F48BF8CEA4301013250
:10046000F4D3017080BD00000021017070470000CE
:100470000A18013A4B421A40002918BF111A0846BF
:1004800070470000B0B582B040F27400C2F20000C4
:1004900000781446FF280D4601D0872124E001A8EA
:1004A000294601F027F80146684601F023F8019833
:1004B000F02801D9842117E0009A862102EB000C74
:1004C000944511D940F2B103C2F200031B789C4558
:1004D0000AD840F27501C2F200011144C2B22846A6
:1004E000FFF7A4FF054640212846217002B0B0BDA9
:1004F000F0B581B040F27406C2F2000615463078BD
:1005000040F2A8020C460021C2F20002535C834272
:1005100004D001310429F9D14FF0FF31002906D46C
:1005200040F29802C2F2000252F8213000E00023AB
:1005300040F2B007C2F2000763B140F2AC01C2F270
:1005400000010A6840F27501C2F200019847387054
:10055000FF20307000202870387804F8010B204606
:1005600001B0F0BD70B51C46022A0D4610D32878A4
:100570006A78A978C00702D162B1942126E040F2DE
:100580004460C2F20000038D934218BF002005D0E2
:100590008C211BE040F24460C2F2000081290BD1A3
:1005A000066896B1304602F0F3FA02462846314614
:1005B000FFF73CFF054608E0018D2970007900290E
:1005C00018BF01216870A9700335402128462170A9
:1005D00070BD00002DE9F04381B00D4615F8010B08
:1005E0000C46914600284FF0940740F0918040F26D
:1005F000B458C2F20008D8F80060002E00F08880DD
:100600002F78A7F1830102290FD3822F17D0812FD2
:1006100018D1A8B9D8F80C0002F0BAFAD8F80C1022
:1006200002462046FFF702FF70E0304601F0F6FF79
:10063000F06A00900098C00706D1002026E068B15B
:10064000852765E0952763E00098400704D400986B
:10065000800715D4012019E0022017E0D8F808100F
:10066000204600F075FFD8F8041001F057F840213B
:10067000402700F06DFF282100F06AFF044647E0A4
:10068000009800074FF0030058BF0420832F20700C
:100690002AD160B37168F069884234BF0020FFF747
:1006A000B7FE716A4FF00008002914BFB0FBF1F7E4
:1006B0000027F06A0007F06A58BFB846000758BF25
:1006C000F768B06AB0F5807F28BF4FF0FF306070E8
:1006D0007168A01CFFF754FE716A00F039FF3946BB
:1006E00000F036FF41460FE040272C4610E0002086
:1006F0006070A01C0021FFF743FE002100F028FFDE
:10070000002100F025FF002100F022FF04464027D1
:10071000204689F8007001B0BDE8F083F0B581B0E3
:100720000F4600220421026004E000BF00215EB2F7
:10073000002E1DD517F8013B0029F7D003F07F05E7
:10074000047805FA02F6264306707AB1541E013980
:1007500000F1010018BF002C06D0C2F10802067893
:1007600025FA02F2324302702246E0E70722DEE772
:100770005B060CD571B1FF23067803FA02F232430F
:1007800000F8012B013911B1FF22FFF733FD384684
:1007900001B0F0BD00210029F6D1F8E72DE9F041C4
:1007A00040F2F050C2F2000000210422002402F0C6
:1007B00071F843F21C10C0F60000D0F80080B8F1C8
:1007C000000F23D0416809B38068F8B100F080F8C9
:1007D0000446002818BF012400F042F8054600280E
:1007E00018BF012500F016F80646002818BF01269C
:1007F00000F02EF80746002818BF0127C047002840
:1008000018BF012038403040284004402046BDE851
:10081000F081000040F2A800C2F200004FF0FF316A
:10082000016040F29800C2F200000021C0E900110E
:10083000C0E9021140F27400C2F20000FF2140F250
:10084000B0020170C2F20002012011707047000076
:1008500040F24461C2F20001002201200A85704783
:10086000B0B540F2B454C2F2000420460021102278
:10087000002502F00FF8206808B12846B0BD40F20C
:10088000AC104FF480610DA2C2F20000C4E9021264
:1008900000214FF48062C4E9000501F0FBFF2068ED
:1008A0000421FFF7E5FDA1688142E6D32268012516
:1008B0000244081A2260A0602846B0BD4465666103
:1008C000756C74205265636F72646572000000007D
:1008D00080B540F2C450C2F2000000212C2201F089
:1008E000D9FF012080BD0000002A18BF11F00103CC
:1008F00002D1022A07D20EE011F8013B013A00F8BA
:10090000013B022A07D311F0030304D031F8023B64
:10091000023A20F8023B042A07D300BF51F8043BF7
:10092000043A032A40F8043BF8D8022A07D300BF50
:1009300031F8023B023A012A20F8023BF8D8002A9B
:100940001CBF09780170704709880180704700005A
:10095000096801607047000070B506C94FEA122CA3
:100960000B0A4FEA124E0C0C150E0E0E017043705E
:100970008470C670027180F805C080F806E0C57109
:1009800070BD00000978017070470000C30718BFF0
:10099000002A02D1022A07D20EE011F8013B013AE7
:1009A00000F8013B022A07D310F0030304D031F80A
:1009B000023B023A20F8023B042A06D351F8043BDA
:1009C000043A032A40F8043BF8D8022A07D300BFB0
:1009D00031F8023B023A012A20F8023BF8D8002AFB
:1009E0001CBF09780170704710B55FEAC07C18BF62
:1009F000002B02D1022B0FD21FE012F801CB11F80D
:100A000001EB04780EEA0C0E24EA0C04744400F89E
:100A1000014B013B022B10D310F003040DD032F830
:100A2000024BB0F800C031F802EB2CEA040C04EAE7
:100A30000E04644420F8024B023B042B10D300BF89
:100A400052F8044BD0F800C051F804EB2CEA040C27
:100A500004EA0E046444043B032B40F8044BEFD833
:100A6000022B0FD332F8024BB0F800C031F802EB82
:100A70002CEA040C04EA0E046444023B012B20F827
:100A8000024BEFD8002B08BF10BD1278097803780D
:100A9000114023EA02021144017010BD2DE9F04F0C
:100AA00085B0A2F580701F4610F1FF0F89461BD359
:100AB00040F2446899F80000C2F20008B8F82840F3
:100AC00000F07F0E7445464618BF00260CD14FFA41
:100AD00080FA98F83000BAF1FF3F4FEAC07105DDA7
:100AE00029B940F0010006E08C214AE109B9002251
:100AF00003E000F0FE0088F83000002A049700F0C0
:100B0000C68099F80130CDF80CA0002B42D04FF0F0
:100B1000000A744508BFC2469AF824C05FEACC7147
:100B20004FF0000114D1744508BF4146CF8B098CAA
:100B30008F4214D270464FF01C0E844208BF08F159
:100B40001C0EBEF800E0791A01EB0E07864607E09E
:100B50001C21744508BF08F11C010F8800E07F1AB2
:100B6000BFB2BB4238BF1F46A7B14146744518BF4C
:100B700000217546B1F81CE00B8CAEEB0300AE46CD
:100B800085B2AF4228BF4342D8190CF0FE038AF861
:100B900024300884DDE903A7032A4FF0000B6FD34C
:100BA0000023744508BF4346187DC0074FF000007E
:100BB00011D14146744518BF0021C889098A814274
:100BC00001D9081A07E00C25744508BF08F10C0587
:100BD0002D88081A2844A2F1020B5FFA8BF182B229
:100BE0008A4238BF83465FEA0B6049D000270296ED
:100BF000744508BF4746B889FA895FFA8BF5801AB1
:100C00001FFA80FA986809F10201AA4528BFAA468E
:100C10001044524676460193FFF7FCFBFA890146E1
:100C200002EB0A00BA8983B293424FF0000238BF48
:100C300002465545FA810DD0ABEB0A005FFA80FA07
:100C4000019892B2806810445246FFF7E3FBF8899E
:100C50005044F8811021F889B44208BF08F110010E
:100C60000988B646DDE9026A884208D11420744535
:100C700008BF08F11400017841F001010170049FE0
:100C80003420744508BF08F1340080F800B02C20EF
:100C9000744508BF08F12C00016881B13025744506
:100CA00008BF08F13005287840F00200287030466F
:100CB000764688472878B64600F0FD0028704FF049
:100CC000000B744508BFC3469BF824000021C007F1
:100CD0000FD1744508BF4146C88B098C88420FD29A
:100CE0001C22744508BF08F11C021288401A1044E7
:100CF00007E01C20744508BF08F11C00008800E0D4
:100D0000401A85B2ED2D4FF0340028BFED2589F84B
:100D100000A0744508BF08F13400007889F801008C
:100D200009F1020965B34FF0000A744518BFD046B7
:100D3000B8F82070B8F81C00ECB2C01B86B2DBF823
:100D40001800AE4228BF2E46C11948463246FFF76A
:100D50006DFBF1B2A142814611D0A81BC2B2F019BD
:100D6000B8F81C1083B28B4238BF8246DBF81800FB
:100D70001FFA8AF101444846FFF758FB8146049F59
:100D800040214846397005B0BDE8F08F43F21C1091
:100D9000C0F60000406800472DE9F04F83B040F2F4
:100DA0007006C2F200063068C00740F09E8043F231
:100DB0002815C0F60005EC69A047002800F0D68091
:100DC00040F2B509C2F20009AD6A40F2B30B40F23D
:100DD000AC5809F1020040F2B20AC2F2000BC2F2B2
:100DE00000080190C2F2000A09F1F00002901DE033
:100DF0005046C8F80090FFF737FB50463946FFF7DA
:100E00001DFBD8F80000411CC8F800100770002036
:100E10008BF80000306840F010003060306820F03F
:100E200008003060A047002800F0A080A8470746CF
:100E30002B280AD130683168C00860F3C30181F003
:100E40000800306030680007ECD430680007CFD469
:100E50003068C00618D49BF800000028E2D00138A2
:100E600001068BF8000020D050463946FFF7E6FA1D
:100E7000D8F800000028D5D00299884225D2411C1C
:100E8000C8F800100770CDE7781C8BF800005046BA
:100E90003946FFF7D3FAD8F80000411CC8F8001013
:100EA0000770306820F01000BBE7D8F8000080B170
:100EB0009AF80000B84212D199F8002099F8011070
:100EC000019838A300F072F8ACE70020C8F80000E1
:100ED000A8E701980021832201F0C8FDA2E701984C
:100EE0000021822201F0C2FD9CE743F22818C0F6DF
:100EF0000008D8F81850A84788B3D8F824B040F2B2
:100F0000B40A40F2B059C2F2000AC2F2000900BFAE
:100F10009AF80070AFB1D9F8000004782B2C0AD1F0
:100F200031683268890861F3820282F0040131601D
:100F30003168490705D4791E01308AF80010C9F8D4
:100F400000002FB1E0B2D847A8470028E0D137B958
:100F5000D8F82C008047306840F0020030603068DC
:100F6000800703D5D8F82000804710B103B0BDE852
:100F7000F08F40F2B300C2F200000021017030682F
:100F8000D8E9011420F001003060306820F0020040
:100F90003060002088470120214603B0BDE8F04FB3
:100FA000084700BF73657269616C000070B584B05A
:100FB00040F2F055C2F20005064628680C46FF21B3
:100FC00098428DF8071003D0002814BF00252B602D
:100FD000002D00F0AF80A2F12000122843D8DFE8F6
:100FE00000F00A5A101F333B676F77424242424279
:100FF000427F444C53000DF10701304601F0D2FB13
:1010000084E002A83146FFF789FB014603A800F0FF
:1010100071FA039AF12A49D2029800F100516FE067
:10102000314611F8014B03A8FFF77CF9014602A8ED
:1010300000F060FADDE90221E3070346084619469D
:1010400056D1FFF7E7F955E00DF107032846314681
:10105000224600F0A7F859E00DF107022846314674
:10106000FFF7B8FA52E0812045E00DF1070328466A
:101070003146224600F0FAFA48E00DF10702284610
:101080003146FFF735FA41E00DF1070228463146B7
:10109000FFF7F8F93AE003A83146FFF743F90146B4
:1010A00002A800F027FA029AF12A28D3842022E02D
:1010B0000DF1070328463146224600F09DF925E050
:1010C0000DF1070228463146F02300F037F81DE005
:1010D0000DF10703284631462246FFF7DFFC15E0F5
:1010E0000DF10703284631462246FFF73BFA0DE093
:1010F000FFF798F900208DF80700304606E00399C5
:1011000000208DF807003046FFF790F99DF8072082
:10111000FF2A0FD043F21C1302F0C001C0F60003F7
:1011200080399C682B6818BF811B3046A04701207E
:1011300004B070BD002004B070BD00002DE9F04384
:1011400081B008788946904630B19421484688F8A5
:10115000001001B0BDE8F08340F2C457C2F20007AE
:101160003878C8B13878C8B11E46002448460025F2
:10117000391991F82420964212D307EB840149686B
:10118000B61AFFF753F9397801358D4204F101049D
:10119000EED300218146D9E78821D7E70021D5E7A2
:1011A0008621D3E72DE9F04F89B09846002A8A4678
:1011B00000F01B819AF800009427002840F0168167
:1011C00040F2B450C2F200000668002E00F00E811A
:1011D00005A9501E0A1D0831029106F130010AF1DD
:1011E00001040392019106F140010027862200913B
:1011F00007E000BF88F800204846D9452C46C0F0DB
:10120000F7800228C0F0F280002F40F0EF8094F8C1
:1012100001B0A0F10209D94504F10205EAD3207812
:10122000013803281FD8DFE800F00220404A05AF4C
:1012300038460021102201F02DFBA078E11C8DF82A
:101240002000384600F056F90146039800F052F9A4
:101250000146029800F04EF9044605EB0B0084426B
:101260005BD0862789E09527BCE005AF3846002192
:101270000C22CDF810A001F00DFBA278E11C38463D
:101280001746FFF74FF882461AF8022B96F83C10E3
:101290008DF81C201AF9010C8F428DF81D002CD2FC
:1012A000082A6DD98627862299E0F06AC0070BD1FB
:1012B000304601F0B3F9862230B1074692E0F06A79
:1012C000C0071DD188278DE0F06A0027400700F194
:1012D00089807068F16AF06141F004003761F06262
:1012E000F06A20F00200F062F06A40F00800F0625C
:1012F000F06A20F01000F06274E0942786226EE01D
:10130000F06A400707D5F06A20F00400F062F06A46
:1013100020F01000F062002764E000273046002132
:10132000402286F82C7001F0B5FA05AB0FCB019D79
:101330000FC5009D04212846FFF79AF82844306025
:101340009DF8201001EB8101CA00002101F0A2FAF2
:101350009DF82000316800EB800001EBC0052846B5
:101360000421FFF785F8284440F2B4517060C2F2BE
:10137000000189683144081AB0608622254631E0B0
:10138000B0F1FF3F10DD316807EB870301EBC301CC
:1013900000F00300022801F110040CD0032850468D
:1013A000214600F003FA0AE003985146FEF7BAFF1F
:1013B0008246862206E05046214600F011F9824618
:1013C0008622069405EB0B00824501D0862706E0B5
:1013D0003046394605AA01F067FA86220746554687
:1013E000DDF810A0A9EB0B0007E7862788F800704E
:1013F000504609B0BDE8F08F2DE9F04F81B01D4691
:101400008B462AB19BF8000050B14FF0940801E0E0
:101410004FF0860885F80080584601B0BDE8F08F8F
:10142000501E0BF101014FF00008862405E000BFBB
:101430002C704846B9453146EED30228EAD3B8F1BC
:10144000000FE7D14F78A0F10209B94501F102067A
:10145000EED30878022808D0012814D13478082C5B
:1014600014D94FF08608862440E091F802A0033199
:101470006846FEF757FF10F8011BF219904214D08E
:101480004FF0860832E04FF081082FE040F2C45A56
:10149000C2F2000A504600212C224FF0000801F051
:1014A000F9F98AF80040862420E040F2C450C2F2E4
:1014B00000000078824517D208294FF0860815D819
:1014C0000120884010F48B7F10D040F2C453009864
:1014D000C2F2000303EB8A02506003EB0A004FF0F4
:1014E000000880F8241001E04FF08508A9EB070000
:1014F0003E449FE7B0B58C4600234FF0040E0360D6
:1015000004E000BF4FF0000E00291FD51CF9011B9D
:10151000BEF1000FF6D001F07F04027804FA03F563
:101520002A43027083B15A1EBEF1010E00F1010080
:1015300018BF002A06D0C3F10803057824FA03F384
:101540002B4303701346DFE70723DDE76046B0BD9A
:1015500070B581B000910321EC4600BF1CF801205A
:101560002AB901394A1CF9D10021017035E0002265
:101570004B1C027031D00023002604E00136994252
:1015800003F1010329D01CF80320057802FA06F4C0
:1015900004F07F042C43C6F10705994222FA05FEA8
:1015A000047008BFBEF1000F06D00EF07F0244F0B9
:1015B0008004047000F8012F072EDFD3994202D176
:1015C000BEF1800F07D302784FEADE1642F08002A8
:1015D000027000F8016F0126D1E7013001B070BD43
:1015E000F0B581B016460D4607461AB12846314679
:1015F000FEF708FE002003E000264AB2002A1DD5AF
:1016000017F8011B002EF7D001F07F032A7803FAA8
:1016100000F422432A7078B1421E013E05F1010513
:1016200018BF002A06D0C0F108002C7823FA00F079
:10163000204328701046E0E70720DEE749060DD575
:101640007EB1FF212A7801FA00F0104305F8010B62
:10165000711E19B12846FF22FEF7CCFD384601B0B5
:10166000F0BD00210029F5D1F8E70000B0B540F247
:101670007400C2F200001C4603780D46FF2B03D015
:10168000872128462170B0BD22B1013A202A03D912
:101690008521F6E78621F4E72978017040F2AC0055
:1016A000C2F2000002603AB140F27500691CD2B289
:1016B000C2F20000FEF7AEFE40F2B000C2F200003F
:1016C000FE21017040F2B100C2F200000021017061
:1016D000D7E700000A7842B10139013800F8012F3C
:1016E0008A780131002AF9D10130002100F8011B6C
:1016F0007047000004E000BFBCF1000F08BF704756
:1017000010F901CBBCF1000FF6D4002AF4D0013A55
:10171000134618BF634601F8013BEDE770B581B091
:1017200000910321EC4600BF1CF801202AB90139C1
:101730004A1CF9D10021017035E000224B1C0270D7
:1017400031D00023002604E00136994203F1010361
:1017500029D01CF80320057802FA06F404F07F046F
:101760002C43C6F10705994222FA05FE047008BF12
:10177000BEF1000F06D00EF07F0244F0800404702A
:1017800000F8012F072EDFD3994202D1BEF1800F5E
:1017900007D302784FEADE1642F08002027000F8AA
:1017A000016F0126D1E7013001B070BDF0B581B005
:1017B00015460C4607461AB120462946FEF722FD7B
:1017C000002002E0002500291ED517F9011B002D7D
:1017D000F8D001F07F03227803FA00F6324322703A
:1017E00080B1421E013D04F1010418BF002A06D059
:1017F000C0F10800267823FA00F03043207010462C
:10180000E1E700BF0720DEE7384601B0F0BD000089
:10181000704700007047000040F2F450C2F2000030
:10182000006800BF01684906FCD5704780B582B0EA
:1018300040F2F450C2F200000DF1070101224FF016
:10184000FF3300F05DFD9DF8070002B080BD000091
:101850000120704740F2F450C2F2000000680068B6
:10186000C0F340107047000040F2F450C2F2000094
:1018700000680068C0F3C0107047000040F2F450E8
:10188000C2F2000000680121006821EA9010704750
:1018900080B582B08DF8070040F2F450C2F200002B
:1018A0000DF1070101224FF0FF3300F0D3FD02B02C
:1018B00080BD00002DE9F04F82B00E68002E00F0D0
:1018C000F68041F20042C4F20102042340F2004ECD
:1018D000904208BF03234FF6FF7CC4F2010E009331
:1018E00000240123C1F2100C4FF0000A4FF0000950
:1018F00043E0012704F00C030F229A402BEA020276
:1019000007FA03F34FEA9A051A4346F825204E6872
:1019100040F20C45F202DEF8082054BF22EA080229
:1019200042EA0802C4F20105CEF808202A68B30290
:1019300054BF22EA080242EA08022A60B303DEF832
:10194000042054BF22EA080242EA0802F303CEF858
:101950000420DEF800204FF0010354BF22EA080201
:1019600042EA0802CEF800200E680AF1010A36FAAF
:101970000AF204F1040400F09A8003FA0AFB16EA62
:101980000B08F1D04E68664510DC122E50D8DFE807
:1019900006F0330A41454F4F4F4F4F4F4F4F4F4F78
:1019A0004F4F4F484C00D1F80C9041E04FF6FF727A
:1019B000C1F2210296420FDC0022C1F211029642CE
:1019C0001AD00022C1F21202964215D00022C1F2B2
:1019D0002102964210D02BE00022C1F22202964250
:1019E0000AD00022C1F23102964205D00022C1F293
:1019F000320296421CD100BF8A6842B1012A14BF4C
:101A0000C0F814B0C0F810B04FF0080910E04FF063
:101A100004090DE0CA6802F1080909E04FF0000965
:101A200006E0CA6802F1040902E0CA6802F10C0982
:101A300022460646B8F5807F24BF203A0436376830
:101A40000F25954027EA050509FA02F22A4332607C
:101A5000CA79D2067FF588AF41F21803C4F20203B7
:101A60001A68AEF57E7642F001021A601A6802F03A
:101A700001020192019A2AF0030256F802B040F6E0
:101A80000002C4F2010290420FD040F60042C4F2BC
:101A9000010290423FF42DAF41F20002C4F2010274
:101AA000009F904208BF022724E7002722E702B0E8
:101AB000BDE8F08F002A08BF0904016170470000EB
:101AC00040F2B060C2F200000068704740F20400CB
:101AD00040F2B061C2F20000C2F2000100780A6870
:101AE000104408607047000080B542F20000C4F264
:101AF0000200016841F010010160032000F07EF84F
:101B00000F2000F005F800F02BF8002080BD000049
:101B1000B0B540F20402C2F2000240F200011278B5
:101B2000C2F200014FF47A730968B3FBF2F2044683
:101B3000B1FBF2F1084600F017FB0F2C4FF0010546
:101B40000CD858B94FF0FF3021460022002500F094
:101B500029F840F20800C2F2000004602846B0BD37
:101B600082B041F21800C4F202000168022241F082
:101B700001010160016801F00101019101994168D1
:101B800041F080514160406800F080500090009822
:101B90000420C4F20100016862F31A61016002B01E
:101BA0007047000010B54EF60C5CCEF2000CDCF86D
:101BB0000030C3F3022E8EF00704042C28BF042447
:101BC000BEF103034FF0FF3E0EFA04F438BF0023CA
:101BD000A14399400EFA03F39A43114300F1604286
:101BE00000F00F03090102F56442043B634400283E
:101BF00048BF03F10C02117010BD00004EF60C51ED
:101C0000CEF200010A684FF6FF031A4060F30A2281
:101C100042F0806040F0FD7008607047002804BF0B
:101C2000012070472DE9F04381B042F20008C4F270
:101C300002080446D8F800000D4600F0070088426C
:101C40000CD2D8F8000020F007002843C8F80000A4
:101C5000D8F8000000F00700A8426BD1206841F2DC
:101C600004098107C4F2020917D5410705D5D9F83F
:101C7000001041F4E061C9F80010010705D5D9F85A
:101C8000001041F46051C9F80010D9F80010A268A2
:101C900021F0F0011143C9F80010C00741D1D8F874
:101CA000000000F00700A8420CD9D8F8000020F08E
:101CB00007002843C8F80000D8F8000000F007002B
:101CC000A84237D12068410707D5D9F80010E2684B
:101CD00021F4E0611143C9F80010000708D5D9F8D4
:101CE0000000216920F4605040EAC100C9F80000FA
:101CF000D9F8002002F00C00082841F20020C0F2C0
:101D00007A004DD143F28C13C2F38341C0F6000335
:101D1000595CD20338D440F60010C0F23D0048436D
:101D20003EE06068022809D0012828D159F8041C37
:101D3000890307D4012001B0BDE8F08359F8041CE1
:101D40008901F7D5D9F8001021F003010843C9F83B
:101D50000000FFF7B5FE064641F28837D9F80000CB
:101D6000616800F00C00B0EB810F98D0FFF7A8FE7F
:101D7000801BB842F2D9032001B0BDE8F08359F8C6
:101D8000041C8907D6D5DDE7D9F8002043F25C139F
:101D9000C2F34042C0F600039A5C4843B0FBF2F045
:101DA000D9F8001043F20412C1F30311C0F6000287
:101DB000515C40F2000220FA01F140F20800C2F248
:101DC00000000068C2F200021160FFF7A1FE0020CF
:101DD00001B0BDE8F083000040F2000041F20401D0
:101DE000C2F20000C4F202010068096843F2141252
:101DF000C1F30221C0F60002515CC84070470000E8
:101E000040F2000041F20401C2F20000C4F20201FB
:101E10000068096843F21412C1F3C221C0F600023F
:101E2000515CC84070470000002804BF0120704783
:101E30002DE9F04182B00446007841F20006C00767
:101E4000C4F2020649D0706800F00C00042809D1E1
:101E50003068800341D5606800283ED1012002B07F
:101E6000BDE8F081706800F00C00082802D17068AD
:101E7000C003EDD465682DB1B5F5A02F0AD0B5F536
:101E8000803F0BD0306820F480303060306820F420
:101E9000802006E0306840F480203060306840F4F4
:101EA00080303060FFF70CFE002D054612D000BFD9
:101EB0003068800311D4FFF703FE401B6428F7D974
:101EC00018E100BFFFF7FCFD401B64284FF0030042
:101ED00000F2D88030688003F4D42078800719D5C8
:101EE000706810F00C0F07D0706800F00C00082824
:101EF00027D17068C00324D43068800703D52069D7
:101F0000012840F0A6803068616920F0F80040EABE
:101F1000C1003060207800074ED5A06938B300209A
:101F2000C4F242200121C0F88014FFF7C9FD054624
:101F3000706A80072DD4FFF7C3FD401B0228F7D934
:101F4000D8E02069002840F20000C4F2422000F0EE
:101F5000A88001210160FFF7B3FD054630688007C6
:101F6000D1D4FFF7ADFD401B0228F7D9C2E0002015
:101F7000C4F242200021C0F88014FFF7A1FD0546FD
:101F8000706A800718D5FFF79BFD401B0228F7D920
:101F9000B0E040F20000C2F20000006844F6D35105
:101FA000C1F26201A0FB0101480A019000BF019843
:101FB000411E00280191F9D12078400717D4E56926
:101FC0008DB1706800F00C00082846D1012D40D07A
:101FD0007068216A00F480328A423AD1616A00F462
:101FE0007010884235D1002002B0BDE8F081F06960
:101FF0005FEAC00808D4F06940F08050F061F069F1
:1020000000F080500090009847F20007C4F20007EB
:102010003868C0050FD4386840F480703860FFF726
:102020004FFD05463868C00505D4FFF749FD401B44
:102030006428F7D95EE0E5681DB1052D42D0012D79
:1020400044D0306A20F001003062306A20F0040091
:102050003FE0012002B0BDE8F0810027C4F2422732
:1020600000203866FFF72CFD022D05460ED100BF7B
:102070003068800155D5FFF723FD401B02284FF043
:102080000300F5D902B0BDE8F08100BF30688001DF
:10209000A9D5FFF715FD401B02284FF00300F5D925
:1020A000F0E700210160FFF70BFD0546306880076F
:1020B0007FF530AFFFF704FD401B02284FF003000F
:1020C000F4D9DFE7306A40F004003062306A40F053
:1020D00001003062FFF7F4FC002D054641F288371D
:1020E00013D000BF306A800712D4FFF7E9FC401B11
:1020F000B842F7D9032002B0BDE8F081FFF7E0FC59
:10210000401BB8424FF00300BCD8306A8007F5D4BA
:10211000B8F1000F3FF553AFF06920F08050F06147
:102120004DE7206AB0F5803F05D17168A26821F4BF
:102130000031114371607168626A21F474111143B6
:102140000843706001203866FFF7BAFC044600BF00
:10215000306880013FF547AFFFF7B2FC001B022853
:102160004FF00300F4D98DE7411E0020B0EB116F52
:102170001CBF012070474EF21002CEF200025160E7
:102180004EF62351CEF20001F0230B700721906030
:1021900011607047002804BF0120704710B5044645
:1021A00090F8410028B9002084F84000204600F053
:1021B00061F8242084F841002068D4E90212C36841
:1021C00023F40053C360036923F440531A430261AC
:1021D000D4E904231143C268194341F20C639A43C2
:1021E0001143C1604169A26921F44071114343F672
:1021F0000002C4F201029042416102D0FFF7ECFDFF
:1022000001E0FFF7FDFDD4E90023192148439900BF
:10221000B0FBF1F048F21F5CC5F2EB1CA0FB0C31E7
:102220004FF69C734909C0F6FF7301FB030032238C
:1022300003EB0010A0FB0C03F02000EA531000EBAE
:102240000110C3F34311084490601069202120F469
:1022500090401061506920F02A005061D06840F42D
:102260000050D0600020606484F8411084F842106F
:10227000606310BD70B586B040F60044C4F201043E
:10228000006804F53051002688420596CDE90366C2
:10229000029601D006B070BD41F21800C4F20200EF
:1022A000016802AD41F480410160016801F48041A0
:1022B00001910199016841F0080101600068294617
:1022C00000F0080001900198402002900220039045
:1022D000032005902046FFF7EDFA8020CDE90206A5
:1022E000204629460496FFF7E5FA0420C4F20100CF
:1022F000016841F0E06141F00401016006B070BD89
:102300002DE9F04381B0044690F84200202860D1C6
:10231000894600294FF0010000F099801746002AF5
:1023200000F09580002022211D46606484F8421050
:102330002063FFF7C5FBA785E785A1680746B1F5D0
:10234000805F02D12069002847D0C8464FF00009BD
:10235000E08DE0B36E1C00BF20680068800614D4D6
:10236000002EF9D0FFF7ACFB0146002D4FF0030023
:102370006AD0C91BA94267D82068C168490744BF11
:1023800001685FEA0171E7D52AE0B8F1000F0BD0D0
:10239000A068B0F5805F10D008B9206968B12068E6
:1023A000406800F07F000AE020684FF000084068B5
:1023B0006FF35F2029F8020B03E02068406808F8FB
:1023C000010BE08D0138E085E08D0028C4D10020AC
:1023D0003AE0022001B0BDE8F0834FF00008B7E713
:1023E000002100910168009140680090009800BFB2
:1023F000206850E8030F216820F4907041E8030240
:10240000002AF5D1206850E8050F216820F001006E
:1024100041E80502002AF5D1206B01280AD100BF4E
:10242000206850E8030F216820F0100041E8030203
:10243000002AF5D1202084F84200002008212063E2
:10244000616484F840000320202184F8421001B028
:10245000BDE8F0832DE9F04381B0044690F84100D7
:1024600020281CD1884600294FF0010066D016466E
:10247000002A63D00020606421201D4684F84100BA
:10248000FFF71EFBA684E684A1680646B1F5805FCF
:1024900001D1206938B1C1464FF0000805E00220A3
:1024A00001B0BDE8F0834FF00009E08C48B36F1C29
:1024B0000CE0B9F1000F1BD019F8010B216848603E
:1024C000E08C0138E084E08CD8B100BF206800685F
:1024D0000006EED4002FF9D0FFF7F2FA01464FF0D4
:1024E000030045B3891BA94225D82068C068EDE7E1
:1024F00038F8020B21686FF35F2048604FF0000945
:10250000DEE720680068400614D46F1C04E000BFBA
:102510002068006840060DD4002FF9D0FFF7D0FAEC
:1025200001464FF0030035B1891BA94203D820684A
:10253000C068EDE70020202184F8411001B0BDE81B
:10254000F0830000FEE70000B0B586B00020CDE9C2
:102550000400CDE9020041F21800C4F20200016853
:1025600040F6000441F0200101600168C4F201045A
:1025700001F02001019101990168002241F004015C
:10258000016001684FF4007501F0040101910199A7
:10259000016841F00801016000684FF4007100F02B
:1025A0000800019001982046FFF784FA0120CDE948
:1025B00003000220059002A920460295FFF77AF950
:1025C00006B0B0BD80B540F2F45043F60001C2F24F
:1025D0000000C4F2010100234FF00C0C4FF4E13273
:1025E00080E80E00C0E90333C0E905C3C361FFF70B
:1025F000D1FD002808BF80BDBDE88040FDF78CBE3E
:10260000FEE70000FEE70000704700007047000092
:10261000FFF75CBA70470000FEE70000C16AC90717
:102620001CBF00207047F0B590F83C204FF0000E22
:1026300022B30168012501F108044FF0000C0023CA
:1026400004E000BF013A04F128041AD0267886215C
:10265000082E43D805FA06F717F48B7F3ED0617831
:102660004907EFD4BEEBDC3F4FF0860108BFBEEB5D
:10267000D33F33D133440CF1010CE3E700234FF097
:10268000000C13B18668B34201D9862126E0026BA3
:102690000024B2FA82F102FB03F54F09B54288BF6C
:1026A000012427431EBF0022B6FBF3F202FB03F511
:1026B0004768466B4FF0FF340021964238BFF44321
:1026C0001619C2607A1900F1200E46618EE80C10CE
:1026D00080F82C10C26A42F00102C262BDE8F040EC
:1026E0000846704703C8B1F90010B0F90020002077
:1026F0008A42A8BF0120704703C8098802880020C9
:102700008A4228BF0120704703C809680268002078
:102710008A42A8BF0120704703C8096802680020E8
:102720008A4228BF0120704703C80AC905C8401A59
:1027300072EB03004FF00000A8BF012070470000BB
:1027400003C80AC905C8401A72EB03004FF0000025
:1027500028BF01207047000003C891F9001090F9CC
:10276000002000208A42A8BF0120704703C80978D2
:10277000027800208A4228BF0120704780B505C832
:102780000CCA03C800F091FB002818BF012080BDCF
:1027900080B503C80968006800F0B1FB002818BFC5
:1027A000012080BD2DE9F04182B005460020884619
:1027B000009068462946FDF7B1FF0099B1B901AE16
:1027C00031460422FEF796FF43F260140027C0F65C
:1027D000000400BF54F82700314600F0B3F907F1B8
:1027E000010710B10B2FF5D100E0009700980128E8
:1027F00019DB43F26011C0F6000101EB800050F8D4
:10280000041C2846FEF766FF0099054601390A298F
:1028100009D8DFE801F00F120A0A141A1C06062371
:10282000060001201BE089211CE043F2BE11C0F626
:10283000000105E02846F0210CE014A100E00CA105
:102840002846FEF747FF05460BE0022007E0284632
:102850004FF00051FEF77CFE054602E0042005F82B
:10286000010B4021284688F8001002B0BDE8F08135
:102870004275696C642064617465206E6F742073A6
:10288000706563696669656400000000332E302E50
:1028900031320000002A08BF704780B50B46114650
:1028A0001A46FDF7A7FC80BD002917D490F83C30EC
:1028B0008B4213D990F82C30002B1CBF8720704717
:1028C00070B592F808E0AEF10103DCB2072C03D832
:1028D0008B25E540ED0703D1862070BD942070471D
:1028E0005DB232A4567A54F825C016F003040CD019
:1028F000032C0DD1BEF1040F1ED0BEF1080FEBD199
:1029000042F27D7EC0F6000E3DE04FF0000E3AE050
:10291000072B4FF0000E46D80025DFE803F0041225
:10292000301B3030302442F2597342F26D7EC0F6D3
:102930000003C0F6000E1EE042F2917EC0F6000ECB
:1029400021E042F2E56342F2F96EC0F60003C0F600
:10295000000E10E042F2097342F2197EC0F6000345
:10296000C0F6000E07E042F2297342F2417EC0F643
:102970000003C0F6000E0125022C08BF9E46002D64
:1029800004BF862070BD0068D2E9004501EB8101DB
:10299000926800EBC10340F831400020C3E90152C6
:1029A000C3E906EC70BD0025E9E700BF8509000812
:1029B000490900088509000851090008850900082F
:1029C000850900088509000859090008F0B581B09B
:1029D00043F22811C0F60001086840F2700540F289
:1029E000B402C2F200050024C2F200022C7014707E
:1029F00048B34E683EB38F682FB38A691AB3CA6969
:102A00000AB30A6AFAB14A6AEAB18A6ADAB1C96AE9
:102A1000C9B180474FF00004A8B10120B847012098
:102A2000B04740F2B300C2F200000470286820F002
:102A300001002860286820F0020028600020B047CC
:102A40000120B8470124204601B0F0BD43F2281010
:102A5000C0F60000006B002808BFFEF79DB980B5E6
:102A60008047BDE88040FEF797B900002DE9F041AE
:102A700040F2B503C2F200030027FC2903F102066D
:102A800088BF0127801B18BF012040F2B055384392
:102A9000C2F2000540F2B40618BF6FF07B022B6053
:102AA00018BF0021C81CC2F200065706307005D4BA
:102AB00003F8012F881C2B60307001E01A705970E8
:102AC00040F2B208C2F200084046FDF7CDFC317872
:102AD0002868022910D340F2B205471E0124C2F231
:102AE000000500BF17F8011F2846FDF7A7FC307846
:102AF00001348442F6D3781C98F80010017040F23B
:102B00007000C2F20000016841F00101016001683B
:102B100021F002010160016821F00401016043F22B
:102B20002810C0F60000D0E901418569466A0020FE
:102B300088470120A047A8472B203146BDE8F04137
:102B40000847000088421FD0002804BF01207047BA
:102B5000002904BF4FF0FF30704700BF037891F8A1
:102B600000C00022634588BF012238BF4FF0FF320A
:102B700042B94FF000022BB10131BCF1000F00F15E
:102B80000100EBD11046704700221046704700004C
:102B9000017859B1411E00208A78013028BF4FF0DA
:102BA000FF30002A01F10101F6D170470020704783
:102BB00090B0FEF799FF06AC20462821FDF744FBB4
:102BC00001200A9010200B904FF46010002502267F
:102BD0000F9020460595CDE90355CDE901550696A0
:102BE000CDE90D65FFF720F918B1EFF3108072B64B
:102BF000FEE70F20CDE901064FF4806004904FF40A
:102C0000A060059001A802210395FFF707F820B105
:102C1000EFF3108072B600BFFEE7FFF795FCFFF7F9
:102C2000D1FCFDF7BBFD40F23C6440F24067C2F2CC
:102C300000044FF6FE750026C2F2000704E000BF54
:102C400001302060FEF7A2F82068A842F8D9386861
:102C500026600130142888BF00203860FEF796F8FF
:102C6000F2E7491058BFC1F140415B1058BFC3F1B2
:102C700040438B42EFF300807047000051EA030CA1
:102C800017D41CF5801F58BFBCF5801F00F10680CB
:102C9000994218BF704708BF9042704707D711F597
:102CA000801F58BF13F5801F19D49942704789427D
:102CB00070471CF5801F08D5BCF5801FF7D58B42E7
:102CC00018BF704708BF824270474FF4001C1CEBCE
:102CD000410F38BF1CEB430F01D28B42704770B5D8
:102CE00000F080F8922449004FF000514FF08053DB
:102CF000FFF7B7BF51EA030C17D41CF5801F58BF6C
:102D0000BCF5801F00F10680994218BF704708BFCC
:102D10009042704707D711F5801F58BF13F5801FE9
:102D200019D499427047894270471CF5801F08D515
:102D3000BCF5801FF7D58B4218BF704708BF824291
:102D400070474FF4001C1CEB410F38BF1CEB430FC6
:102D500001D28B42704770B500F044F892244900CC
:102D60004FF080514FF00053FFF77BBF51EA030C47
:102D700017D41CF5801F58BFBCF5801F00F10680DA
:102D8000994218BF704708BF9042704707D711F5A6
:102D9000801F58BF13F5801F19D49942704789428C
:102DA00070471CF5801F08D5BCF5801FF7D58B42F6
:102DB00018BF704708BF824270474FF4001C1CEBDD
:102DC000410F38BF1CEB430F01D28B42704770B5E7
:102DD00000F008F8922449004FF000514FF0805362
:102DE000FFF73FBF0EF1020E2EF0030E5EF8046BEC
:102DF000364205D4012A43EB030515F5001F12D80E
:102E0000012841EB010C1CF5001F0CD80ED14FEA34
:102E1000D17C0CEB4C0C0CF1020C15F5001F08BF1B
:102E20004CEBD37C04E04FF0080C01E04FEAD37C7C
:102E30000CEB4C0526FA05F606F00706B6F1040C75
:102E400006D20EEB860CBDE870404CF0010C6047DA
:102E5000DFE80CF0090B02024FF00041A1F5002160
:102E60004FF0000070BD19461046012851EB0104D7
:102E700018BFD4F5001484BF002001F0004170BDDC
:102E800010B5FFF7FBFE0CBF0120002010BD10B5F0
:102E9000FFF7F4FE14BF0120002010BD10B5FFF7AE
:102EA00029FF8CBF0120002010BD10B5FFF722FFC5
:102EB0002CBF0120002010BD10B5FFF757FF94BFB5
:102EC0000120002010BD10B5FFF750FF34BF0120D6
:102ED000002010BD10B500F033F80CBF0120002019
:102EE00010BD10B500F02CF814BF0120002010BD5B
:102EF00010B500F059F88CBF0120002010BD10B5AE
:102F000000F052F82CBF0120002010BD10B500F0D9
:102F10007FF894BF0120002010BD10B500F078F8B4
:102F200034BF0120002010BD401058BFC0F1404008
:102F3000491058BFC1F140418142EFF30080704712
:102F400050EA010C00F113801CF5000F58BFBCF5CE
:102F5000000F01D48842704707D710F5000F58BF03
:102F600011F5000F15D488427047894270471CF54F
:102F7000000F04D5BCF5000FF7D5814270474FF024
:102F8000807C1CEB400F38BF1CEB410F01D281420B
:102F9000704710B500F070F8922449004FF00050CF
:102FA0004FF08051FFF7C0BF50EA010C00F11380D1
:102FB0001CF5000F58BFBCF5000F01D488427047C4
:102FC00007D710F5000F58BF11F5000F15D4884230
:102FD0007047894270471CF5000F04D5BCF5000FFF
:102FE000F7D5814270474FF0807C1CEB400F38BF13
:102FF0001CEB410F01D28142704710B500F03CF844
:10300000922449004FF080504FF00051FFF78CBFE1
:1030100050EA010C00F113801CF5000F58BFBCF5FD
:10302000000F01D48842704707D710F5000F58BF32
:1030300011F5000F15D488427047894270471CF57E
:10304000000F04D5BCF5000FF7D5814270474FF053
:10305000807C1CEB400F38BF1CEB410F01D281423A
:10306000704710B500F008F8922449004FF0005066
:103070004FF08051FFF758BF0EF1020E2EF0030EF5
:103080005EF8044B244204D44FEA4102B2F17F4F70
:1030900011D84FEA4003B3F17F4F0CD80ED14FEA5D
:1030A000D07C0CEB4C0C0CF1020CB2F17F4F08BF42
:1030B0004CEBD17C04E04FF0080C01E04FEAD17CEE
:1030C0000CEB4C0324FA03F404F00704B4F1040CF1
:1030D00006D20EEB840CBDE810404CF0010C6047AA
:1030E000DFE80CF0070802024FF00040A0F5800076
:1030F00010BD0846420018BFD2F1807288BF00F0B0
:10310000004010BD000000000000000001020304A8
:10311000060708090000000001020304CD29000889
:103120004D2A00086D2A00085118000815180008DB
:10313000111800080000000000000000000000005E
:1031400069180008551800087D1800089118000833
:103150002D180008191800080000000001020000E6
:10316000B7310008B4310008AE310008B1310008B1
:10317000AB3100089C3100089F310008A5310008E0
:10318000A8310008BB310008A23100080203040581
:10319000060708090A0B0C0D0E0F101046310042ED
:1031A00041005043005243005343004244004E4DFF
:1031B000004453005653004D5455005056004E6F76
:1031C0007420646566696E6564000000F031000873
:1031D000000000201000000050010008003200082C
:1031E00010000020A80C0000700100080000000082
:1031F00000127A0001000000100000000000000032
:04000005080000ED02
:00000001FF
